:020000040800F2
:10000000C00A00205D02000819420008D737000826
:1000100045410008310A0008554E00080000000064
:100020000000000000000000000000009D0100082A
:100030004F0B000800000000F9010008054500080A
:1000400077020008770200087702000877020008AC
:10005000770200087702000877020008770200089C
:10006000770200087702000877020008770200088C
:10007000770200087702000877020008770200087C
:10008000770200087702000877020008770200086C
:10009000770200087702000877020008770200085C
:1000A000770200087702000877020008770200084C
:1000B0007702000809460008194600087702000880
:1000C000770200087702000877020008770200082C
:1000D00077020008454E0008770200087702000802
:1000E00077020008770200087702000849460008F6
:1000F00077020008770200087702000877020008FC
:1001000077020008770200087702000877020008EB
:1001100077020008770200082946000839460008DF
:1001200077020008610A00087702000877020008D9
:1001300077020008770200087702000877020008BB
:1001400077020008770200087702000877020008AB
:10015000770200087702000877020008770200089B
:10016000770200087702000877020008770200088B
:100170007702000877020008510A0008000000001A
:100180007702000877020008DFF80CD000F07CFB53
:1001900000480047DD580008C00A00202C4B1968B1
:1001A0000868B0E8F04F80F30988BFF36F8F4FF015
:1001B000000080F3118870470000000008480068C4
:1001C000006880F308884FF0000080F3148862B65E
:1001D00061B6BFF34F8FBFF36F8F00DF00BF00BF6B
:1001E00008ED00E0DFF80C00016841F470010160E7
:1001F000704700BF88ED00E0EFF30980BFF36F8F19
:10020000134B1A681EF0100F08BF20ED108A20E96A
:10021000F04F106009B44FF0500080F31188BFF325
:100220004F8FBFF36F8F05F0F7FB4FF0000080F3A7
:10023000118809BC19680868B0E8F04F1EF0100F6B
:1002400008BFB0EC108A80F30988BFF36F8F704746
:1002500068000020EFF305807047000006488047E3
:1002600006480047FEE7FEE7FEE7FEE7FEE7FEE79B
:10027000FEE7FEE7FEE7FEE7F54500088901000816
:100280002DE9F05F0546002092469B4688460646CB
:10029000814640241BE0284641464746224600F05E
:1002A00078F953465A46C01A914110D31146184660
:1002B000224600F05FF92D1A67EB01084F462246EF
:1002C0000120002100F056F917EB00094E41201ED5
:1002D000A4F10104DFDC484631462A464346BDE826
:1002E000F09FD2B201E000F8012B491EFBD270470B
:1002F0000022F6E710B513460A4604461946FFF7F2
:10030000F0FF204610BD2DE9FE4F81EA030404F002
:10031000004421F0004100944FF0000B23F0004313
:1003200050EA01045ED052EA03045BD0C3F30A54DE
:10033000C1F30A552C44A4F2F3340194A0FB0254F7
:10034000C1F3130141F48011C3F3130343F4801389
:1003500001FB024400FB034E840A970A44EA8154DD
:1003600047EA8357A4FB076802958D0A05FB0785BA
:100370004FEA932C04FB0C542705029D4FEA0658C4
:1003800047EA1637B5EB08056EEB070C870E920EA1
:1003900047EA811742EA8312A7FB0201B6EB0B0181
:1003A00064EB00042B0D43EA0C335E1844EB1C5045
:1003B000DA465146E7FB0201C5F313044FEA0B335B
:1003C00043EA14534FEA0432019C43EA0603A4F1C2
:1003D0000C040294009CCDE900B400F030F903B0A5
:1003E000BDE8F08F00200146F9E72DE9F04D81EAE4
:1003F000030404F0004B21F0004514464FF0000ABE
:1004000023F0004150EA050220D054EA01021DD039
:10041000C5F30A570246C5F31303C1F31300C1F332
:100420000A5640F4801543F48013A7EB0608101B0E
:10043000D64608F2FD3873EB050002D308F1010837
:1004400001E092185B41B8F1000F03DA0020014689
:10045000BDE8F08D00204FF48011064684460EE082
:10046000171B73EB050705D3121B63EB050306434C
:100470004CEA010C49084FEA300092185B4150EAFF
:100480000107EDD152EA030012D082EA040083EAA8
:100490000501084305D0101BAB4106D20122002301
:1004A00006E000224FF0004302E06FF0010253101B
:1004B0001AEB06004CEB085110EB0A0041EB0B0164
:1004C000BDE8F04D00F0ACB80EB5C10F80EAE070A9
:1004D0000844CA07002140F233438DE80E000A4663
:1004E0000B4600F0ACF803B000BD00F0004230F065
:1004F00000400AD0C10D01F56071C0F3160042EA58
:100500000151C2084007114370470020014670475F
:1005100001F0004330B421F0004150EA010206D05E
:100520000A0DA2F56072C1F31301002A02DC30BC8F
:1005300000207047440F44EAC104C100E01830BCF9
:1005400000EBC25000F035B830B50B460146002034
:100550002022012409E021FA02F59D4205D303FA85
:1005600002F5491B04FA02F52844151EA2F1010206
:10057000F1DC30BD202A04DB203A00FA02F1002031
:1005800070479140C2F1200320FA03F319439040D1
:100590007047202A04DB203A21FA02F0002170473C
:1005A00021FA02F3D040C2F12002914008431946DB
:1005B00070470029A8BF7047401C490008BF20F0C1
:1005C0000100704710B4B0FA80FC00FA0CF050EA59
:1005D000010404BF10BC704749B1CCF1200421FADA
:1005E00004F411FA0CF118BF012121430843A3EBD5
:1005F0000C01CB1D4FEA00614FEA102042BF0020E2
:1006000010BC704700EBC35010440029A4BF10BCBD
:100610007047401C490008BF20F0010010BC704723
:1006200010B5141E73F1000408DA401C41F10001FA
:1006300092185B411A4301D120F0010010BD2DE951
:10064000F04D92469B4611B1B1FA81F202E0B0FA48
:1006500080F220329046FFF78DFF04460F4640EAB5
:100660000A0041EA0B0153465A46084313D011468B
:1006700053EA010019D0C8F140025046FFF789FF44
:1006800005460E46504659464246FFF773FF08435B
:1006900005D0012004E020463946BDE8F08D002059
:1006A000054346EAE0762C4337430A986305E40A9B
:1006B000A0EB08000022FD0A44EA47540A3002D5A4
:1006C00000200146E9E7010510196941DDE9084507
:1006D00000196941BDE8F04DA2E72DE9FE4F8046C3
:1006E00081EA0300C00F0C46009021F0004123F086
:1006F0000045B8EB0200A94105D24046214690468C
:100700001C460B46024623F00040104347D0270DFD
:10071000C7F30A00C3F30A510290401A019040281F
:100720006BDAC3F3130040F4801B0098924620B1AB
:100730000023D2EB030A63EB0B0B01985946C0F17F
:1007400040025046FFF716FF06460D4650465946F2
:10075000019A00F0ABF810EB08006141002487EA31
:10076000115284EAE7731A4340D0009A62B3019AA7
:10077000012A4FEA075215DC001B61EB02014FF022
:10078000004202EA0752CDE90042001C41F5801107
:1007900032462B46FFF753FF03B0BDE8F08F4046CB
:1007A0002146F9E7001B61EB0201001C41F58013B3
:1007B00000185B412018A2F5001747EB030140EA3F
:1007C000D570B6196D4111E06D084FEA360645EA5D
:1007D000C0754FEA0752001B61EB0201001C41F596
:1007E000801149084FEA30000019514132462B462A
:1007F00003B0BDE8F04FFFF713BF0098012240009F
:100800000023D0EB020263EBE073009821464FEA2D
:10081000E074B8EB000061EB0401E9E783F000430A
:100820005BE781F0004158E7C1F30A52C1F31301BD
:1008300040F2FF3341F480119A4202DA002001466F
:10084000704740F233439A42A2F2334202DC5242F2
:10085000FFF79FBEFFF78EBE30B5041E71F1000496
:1008600004DB4FF00044404264EB0101141E73F1BD
:10087000000405DB1C464FF00043524263EB0403C7
:10088000994208BF904230BD064C074D06E0E06833
:1008900040F0010394E8070098471034AC42F6D3C7
:1008A000FFF776FC985C0008B85C0008202A06DB9D
:1008B000CB17203A41FA02F043EAE07306E041FA2E
:1008C00002F3D040C2F1200291400843194670471C
:1008D00055494A6822F440324A604A6843681A43DC
:1008E0004A600268526822F4807203685A600268A3
:1008F0005368026943EA022203685A600268526838
:1009000022F0407203685A600268526883681A4392
:1009100003685A600268926822F4006203689A6071
:1009200002689268C3681A4303689A603F4B826A00
:100930009A4218D00268926822F0706203689A6046
:1009400002689268836A1A4303689A600268926830
:1009500022F0405203689A6002689268C36A1A43A0
:1009600003689A600BE00268926822F07062036884
:100970009A600268926822F0405203689A600268A6
:10098000926822F0020203689A6002689368027E0D
:1009900043EA420203689A602022125CA2B1026814
:1009A000526842F4006203685A600268526822F496
:1009B000604203685A6002685368426A521E43EA02
:1009C000423203685A6005E00268526822F400620D
:1009D00003685A600268D26A22F470020368DA621D
:1009E0000268D36A828B521E43EA02520368DA62BB
:1009F0000268926822F4007203689A600268936841
:100A000090F8302043EA422203689A6002689268B4
:100A100022F4806203689A6002689368426943EA3C
:100A2000822203689A607047002301400100000F92
:100A300000BFFEE770B50546AC6BA06B406D0228A9
:100A400002D0012084F82500204600F0E7FA70BDAE
:100A500010B5024800F0E4FA10BD00001C010020AF
:100A600010B5024800F0BAFC10BD00005C01002087
:100A70000146087810381823B0FBF3F20848805C70
:100A8000C865032A05D908686FF30900001D886549
:100A900003E008686FF309008865886D70470000FF
:100AA000785C0008014600208A6A8B69CBB932B1B4
:100AB000012A0DD0022A03D0032A10D10EE000BF74
:100AC000CB6A03F08073B3F1807F00D1012007E08F
:100AD000CB6AB3F1C07F00D1012001E000E000BF8C
:100AE00034E08B69B3F5005F1AD132B1012A07D027
:100AF000022A03D0032A11D10AE000BF01200EE030
:100B0000CB6A03F08073B3F1807F00D1012006E04F
:100B1000CB6AB3F1C07F00D1012000E000BF15E037
:100B200032B1012A05D0022A04D0032A0CD103E0F5
:100B300000BF00BF012008E0CB6A03F08073B3F16F
:100B4000807F00D1012000E000BF00BF70477047E8
:100B500072B600BFFEE7000038B5024600200090E4
:100B600000BF92F83C00012801D1022038BD0120CD
:100B700082F83C0000BF0868092816D91068C068D0
:100B80000C780A3C04EB44050724AC40A0431468ED
:100B9000E0600C780A3C04EB44048868A0401468C8
:100BA000E46820431468E06013E0106800690C7882
:100BB00004EB44050724AC40A043146820610C7882
:100BC00004EB44048868A040146824692043146836
:100BD00020614868072817D21068406B0C79641EA2
:100BE00004EB84051F24AC40A043146860630888AC
:100BF00080B20C79641E04EB8404A0401468646B1A
:100C000020431468606331E048680D2817D21068EB
:100C1000006B0C79E41F04EB84051F24AC40A04357
:100C200014682063088880B20C79E41F04EB840404
:100C3000A0401468246B20431468206316E01068F9
:100C4000C06A0C790D3C04EB84051F24AC40A04322
:100C50001468E062088880B20C790D3C04EB8404CF
:100C6000A0401468E46A20431468E062194B1A4CEF
:100C70001068A04206D10868122803D1586840F4D1
:100C800080005860144C1068A0421CD108681028DD
:100C900002D00868112816D1586840F40000586046
:100CA000086810280FD10D4800680D4CB0FBF4F017
:100CB00000EB80004000009002E00098401E009091
:100CC00000980028F9D100BF002082F83C0000BF46
:100CD00000BF4BE7002301400020014064000020DA
:100CE00040420F0070B5044600250CB9012070BDCC
:100CF0001549A06A884200D000BF206C30B9204658
:100D000000F024F80020606484F83C00206C00F0BF
:100D1000100088B9206C20F4885040F00200206454
:100D20002046FFF7D5FD00206064206C20F0020013
:100D300040F00100206400E0012500BF002084F89D
:100D40003C0000BF2846D2E70100000F10B586B076
:100D50000446142101A8FFF7CBFA194920688842FC
:100D60002BD100BF002000901648006840F480702E
:100D7000144908600846006800F48070009000BFC5
:100D800000BF00BF002000900E481438006840F0FB
:100D900004000C49143908600846006800F004009B
:100DA000009000BF00BF1E20019003200290002091
:100DB000039001A9044800F0BBFC06B010BD000080
:100DC00000200140443802400008024070B504464B
:100DD0000CB9012070BD94F8200010B9204600F035
:100DE000AFF82068006840F001002168086000F05A
:100DF0009FFD05460DE000F09BFD401B0A2808D929
:100E0000606A40F400306062052084F82000012010
:100E1000E0E72068406800F001000028EBD020687F
:100E2000006820F002002168086000F081FD05469E
:100E30000DE000F07DFD401B0A2808D9606A40F4EF
:100E400000306062052084F820000120C2E720689D
:100E5000406800F002000028EBD1207E012806D176
:100E60002068006840F080002168086005E0206884
:100E7000006820F0800021680860607E012806D1AB
:100E80002068006840F040002168086005E02068A4
:100E9000006820F0400021680860A07E012806D18B
:100EA0002068006840F020002168086005E02068A4
:100EB000006820F0200021680860E07E012806D14B
:100EC0002068006820F010002168086005E02068B4
:100ED000006840F0100021680860207F012806D1DA
:100EE0002068006840F008002168086005E020687C
:100EF000006820F0080021680860607F012806D1A2
:100F00002068006840F004002168086005E020685F
:100F1000006820F0040021680860D4E90201084359
:100F200021690843616908436168491E08432168D3
:100F3000C86100206062012084F82000002049E799
:100F400010B586B00446142101A8FFF7D1F91B495A
:100F50002068884230D100BF002000901848006807
:100F600040F00070164908600846006800F0007004
:100F7000009000BF00BF00BF002000901048103854
:100F8000006840F001000E4910390860084600680A
:100F900000F00100009000BF00BF4FF4C05001906E
:100FA0000220029000200390032004900920059065
:100FB00001A9044800F0BCFB06B010BD006400406D
:100FC000403802400000024010B504460CB9012030
:100FD00010BD607920B900202071204600F004F88F
:100FE000012060710020F3E708B50A4A01689142C8
:100FF0000FD100BF002100910749096841F48051D9
:10100000054A11601146096801F48051009100BF42
:1010100000BF08BD003002403038024070477047C2
:1010200070B504462068056905F0040004280ED157
:1010300021684861E06B40F00200E063042084F81E
:1010400025002248A16B0865A06B00F0B2F905F0FD
:10105000020002280ED121684861E06B40F00100D7
:10106000E063042084F825001848A16B0865A06B94
:1010700000F09FF905F01000102804D121684861A4
:10108000204600F06EF805F00800082804D1216819
:101090004861204600F036F905F00100A0B1206853
:1010A000006800F00200022805D12068C06820F026
:1010B0001E002168C8602068C06820F00100216817
:1010C000C8602046FFF7ABFF70BD0000350A00087E
:1010D00010B504460CB9012010BD94F8250040B9A4
:1010E000002084F82400204600F03CF8204600F060
:1010F00039F8022084F825002068006840F6F8716D
:10110000884321680860616960680843E1680843B2
:1011100021690843A1680843A1690843216A08437B
:1011200021680968084321680860606810280BD1AD
:10113000217F607F41EA0021A07F41EA0041E07FFA
:1011400041EA0060216888612068C06840F01E00A4
:101150002168C8600020E063012084F82500002099
:10116000BAE7704710B586B00446142101A8FFF70E
:10117000BFF85C49206888427ED100BF0020009003
:101180005948006840F00100574908600846006867
:1011900000F00100009000BF00BF00BF00200090E1
:1011A000081F006840F01000091F0860084600682A
:1011B00000F01000009000BF00BF00BF00200090B2
:1011C0000846006840F0010008600846006800F02A
:1011D0000100009000BF00BF00BF00200090084643
:1011E000006840F0040008600846006800F0040051
:1011F000009000BF00BF00BF0020009008460068BC
:1012000040F0020008600846006800F0020000900C
:1012100000BF00BF732001900220029000200390C5
:1012200004900D20059001A9304800F081FA50206B
:101230000190022002900020039004900D20059060
:1012400001A92B4800F074FAC020019002200290FE
:101250000020039004900D20059001A9254800F07E
:1012600067FAC020019002200290002003900490B1
:101270000D20059001A900E031E01F4800F058FA68
:101280001E481F4908604FF00070486000211C484C
:101290008160C1604FF48061016189004161890012
:1012A00081618911C1614FF44031016204214162C1
:1012B000032181620021C162016300F0AFF908B12E
:1012C000FFF746FC00BF0E48A063846300BF002206
:1012D00011464E2000F01AFC4E2000F007FC06B02C
:1012E00010BD0000000005503438024000100240DC
:1012F000000002400008024000040240286402404E
:101300005C010020704770B50446A56D00F010FB2D
:10131000064694F83500022808D08020606500BF9A
:10132000002084F8340000BF012070BD20680068F0
:1013300020F01600216808602068406920F08000D5
:1013400021684861206C08B9A06C28B12068006849
:1013500020F00800216808602068006820F0010083
:101360002168086010E000F0E3FA801B05280BD923
:1013700020206065032084F8350000BF002084F839
:10138000340000BF0320D0E72068006800F00100AF
:101390000028E8D194F85C103F208840A860012024
:1013A00084F8350000BF002084F8340000BF00BF7F
:1013B000BBE7014691F83500022803D0802048653C
:1013C00001207047052081F835000868006820F08A
:1013D00001000A6810600020F3E70000F8B5044639
:1013E000002000908C4800684FF41651B0FBF1F7D4
:1013F000A56D2E6894F85C1008208840304098B1A4
:101400002068006800F0040070B12068006820F0D7
:1014100004002168086094F85C1008208840A860E7
:10142000606D40F00100606594F85C100120884018
:10143000304068B12068406900F0800040B194F805
:101440005C1001208840A860606D40F0020060657B
:1014500094F85C1004208840304068B1206800682F
:1014600000F0020040B194F85C1004208840A860AD
:10147000606D40F00400606594F85C1010208840B6
:10148000304078B32068006800F0080050B394F84A
:101490005C1010208840A8602068006800F480205C
:1014A00080B12068006800F4002028B9206CC8B121
:1014B0002046216C884715E0A06C98B12046A16CAD
:1014C00088470FE02068006800F4807028B9206821
:1014D000006820F0080021680860206C10B12046E8
:1014E000216C884794F85C10202088403040002808
:1014F00065D02068006800F0100000285FD094F8E4
:101500005C1020208840A86094F83500052828D178
:101510002068006820F01600216808602068406993
:1015200020F0800021684861206C08B9A06C28B1C7
:101530002068006820F008002168086094F85C10BA
:101540003F208840A860012084F8350000BF0020BB
:1015500084F8340000BF206D10B12046216D88470B
:10156000F8BD2068006800F4802080B12068006821
:1015700000F4002028B9606C10B12046616C8847E7
:101580001DE0E06BD8B12046E16B884717E020688A
:10159000006800F4807068B92068006820F01000CE
:1015A00021680860012084F8350000BF002084F81D
:1015B000340000BFE06B10B12046E16B8847606DDE
:1015C00038B3606D00F00100F0B1052084F83500FB
:1015D0002068006820F001002168086000BF0098C2
:1015E000401C0090B84200D905E02068006800F077
:1015F00001000028F3D100BF012084F8350000BFAE
:10160000002084F8340000BFE06C10B12046E16C8B
:10161000884700BFA4E70000640000202DE9F041E6
:101620000446002500F084F9074614B90120BDE8FE
:10163000F081606A00B100BF022084F8350000BF6D
:10164000002084F8340000BF2068006820F001000A
:10165000216808600AE000F06BF9C01B052805D975
:1016600020206065032084F83500E0E720680068EA
:1016700000F001000028EED12068056821480540EF
:10168000D4E901010843E16808432169084361691D
:101690000843A1690843E1690843216A08430543F7
:1016A000606A042803D1D4E90B010843054320688C
:1016B00005602068456925F00705606A0543606A92
:1016C00004280DD1A06A0543E06A48B12046FFF71F
:1016D000E9F928B140206065012084F83500A6E7CB
:1016E000206845612046FFF7C3F9064694F85C1070
:1016F0003F208840B06000206065012084F83500FC
:10170000002094E73F8010F070B5044600F010F917
:1017100006462546681C10B104480078054400BF01
:1017200000F006F9801BA842FAD370BD60000020CB
:10173000F8B502460B460025002400200021D6E023
:10174000012606FA01F51E6806EA0504AC4274D1CA
:101750001E7906F00306012E04D01E7906F003065A
:10176000022E13D190684F000326BE40B0434F00B5
:10177000DE68BE4030439060506801268E40B04322
:101780001E79C6F300168E40304350601E7906F075
:101790000306032E09D0D0684F000326BE40B04395
:1017A0004F009E68BE403043D0601E7906F00306AD
:1017B000022E13D1CF0802F1200656F827004E075B
:1017C000F70E0F26BE40B0434F07FF0E1E69BE4006
:1017D0003043CF0802F1200646F8270010684F007A
:1017E0000326BE40B0431E7906F003064F00BE40FC
:1017F000304310605E6806F44036002E76D000BF9D
:10180000002600963C4E366846F480463A4F3E60CD
:101810003E46366806F48046009600BF00BF374E4D
:101820008F0856F827008E07370F0F26BE40B043AB
:10183000334EB24202D1002624E057E0314EB2428C
:1018400001D101261EE0304EB24201D1022619E03C
:101850002E4EB24201D1032614E02D4EB24201D1E8
:1018600004260FE02B4EB24201D105260AE02A4E93
:10187000B24201D1062605E0284EB24201D1072628
:1018800000E008268F073F0FBE4030431B4E8F08F5
:1018900046F82700224E3068A0435E6806F48016A2
:1018A00006B120431E4E3060361D3068A0435E688E
:1018B00006F4001606B12043194E361D3060184E4E
:1018C000361F3068A0435E6806F4003606B1204338
:1018D000134E361F3060361F3068A0435E6806F432
:1018E000803606B120430E4E083E3060491C102958
:1018F000FFF426AFF8BD000044380240083801402C
:10190000000002400004024000080240000C0240B7
:10191000001002400014024000180240001C024067
:10192000083C01400AB1816101E00B04836170470A
:1019300001480068704700005800002070B5044658
:101940000CB9012070BD4CF6CC402168086045F20E
:10195000555021680860D4E9001048602168A068EB
:101960008860FFF7E5FF05460BE0FFF7E1FF401B4E
:10197000312806D92068C06800F0030008B10320B0
:10198000E0E72068C06800F003000028EDD14AF6C7
:10199000AA20216808600020D4E7000003480068FE
:1019A000034909780844014908607047580000203D
:1019B0006000002010B50D48006840F400700B492D
:1019C00008600846006840F48060086008460068C7
:1019D00040F480700860032000F0D6F80F2000F07B
:1019E00007F800F05FF8002010BD0000003C024046
:1019F0002DE9F04188B004460027B84600BF00201A
:101A000001902348006840F04000214908600846E2
:101A1000006800F04000019000BF00BF02A903A8C9
:101A200000F088F9069F1FB900F0ACF9054602E006
:101A300000F0A8F945001748B5FBF0F0A0F1010847
:101A400015481649086040F2E7311448C160C0F8F3
:101A50000480002101618160816100F0EFFC064695
:101A600096B90E4800F02CFE06466EB92B2000F009
:101A70003DF8102C07D2002221462B2000F046F81A
:101A80000748046000E00126304608B0BDE8F08158
:101A90004038024040420F0000180040B0050020CE
:101AA0005C00002008B500BF002000900E480068D0
:101AB00040F480400C4908600846006800F480400B
:101AC000009000BF00BF00BF00200090081F00680A
:101AD00040F08050091F08600846006800F0805000
:101AE000009000BF00BF08BD4438024001460846D0
:101AF000002809DB00F01F0301229A4043099B00E4
:101B000003F1E023C3F8002100BF70472DE9F05F27
:101B100080460D461646002703F0AEF907463946C3
:101B20002A46334601F00700C0F1070ABAF1040F54
:101B300002D94FF0040A01E0C0F1070AD14600F1D2
:101B4000040ABAF1070F02D24FF0000A01E0A0F137
:101B5000030AD4464FF0010A0AFA09FAAAF1010A67
:101B60000AEA020A0AFA0CFA4FF0010B0BFA0CFB14
:101B7000ABF1010B0BEA030B4AEA0B04214640468A
:101B800003F082F9BDE8F09F00BF00F00702064BAA
:101B900019684FF6FF031940044B0B4343EA022137
:101BA000014B196000BF70470CED00E00000FA0522
:101BB00070B504460D460CB9012070BD5848006848
:101BC00000F00700A84209D255490D700846006888
:101BD00000F00700A84201D00120EEE7207800F0D5
:101BE000020002281DD1207800F00400042805D14D
:101BF0004C48006840F4E0504A490860207800F002
:101C00000800082805D14748006840F4604045496D
:101C100008604448006820F0F000A168084341498A
:101C20000860207800F00100A8B36068012807D19F
:101C30003C4808380068C0F34040B8B90120BCE710
:101C40006068022802D06068032807D13548083848
:101C50000068C0F3406048B90120AEE73148083859
:101C60000068C0F3400008B90120A6E72D480068CD
:101C700020F00300616808432A490860FFF758FE16
:101C8000064609E0FFF754FE801B41F28831884286
:101C900002D9032091E707E02248006800F00C0019
:101CA0006168B0EB810FEDD11D48006800F00700BE
:101CB000A84209D91A490D700846006800F00700CB
:101CC000A84201D0012078E7207800F00400042821
:101CD00007D11448006820F4E050E1680843114936
:101CE0000860207800F00800082808D10D48006836
:101CF00020F46040216940EAC1000A49086000F010
:101D000061F808490968C1F30311074A515CC840EA
:101D10000649086006480068FFF76AFE00204CE7A5
:101D2000003C024008380240805C0008640000204B
:101D30005C0000200F2202600D4A126802F00302CC
:101D400042600B4A126802F0F0028260084A126890
:101D500002F4E052C260064A126802F46042D208FD
:101D60000261044A126802F007020A60704700002C
:101D700008380240003C02400148006870470000FB
:101D80006400002000B5FFF7F7FF04490968C1F3BC
:101D90008221034A515CC84000BD0000083802405F
:101DA000905C000800B5FFF7E7FF04490968C1F33C
:101DB0004231034A515CC84000BD0000083802406F
:101DC000905C00082DE9F047002400250026A1467C
:101DD0002548006800F00C0020B1042805D0082830
:101DE0003AD105E0DFF8849039E0DFF8849036E0FE
:101DF0001D48001F006800F03F041B48001F0068DA
:101E000000F4800078B11A481749091F0968C1F326
:101E10008811A0FB01700146224600233846FEF7D8
:101E20002FFA05460EE011480F49091F0968C1F352
:101E30008811A0FB01700146224600233846FEF7B8
:101E40001FFA05460848001F0068C0F30140401C07
:101E50004600B5FBF6F902E0DFF8109000BF00BFC6
:101E60004846BDE8F0870000083802400024F4002E
:101E700040787D01F8B504460CB90120F8BD207802
:101E800000F00100002874D0F948006800F00C0050
:101E900004280DD0F648006800F00C00082813D183
:101EA000F348001F006800F48000B0F5800F0BD1EC
:101EB000EF4808380068C0F34040002859D06068F7
:101EC000002856D10120D9E700BF6068B0F5803FF7
:101ED00008D1E7480838006840F48030E449083900
:101EE00008601EE06068B0F5A02F0DD1E04808380A
:101EF000006840F48020DE49083908600846006820
:101F000040F4803008600CE0D9480838006820F4BC
:101F10008030D749083908600846006820F48020DE
:101F2000086000BF606890B1FFF702FD054606E05B
:101F3000FFF7FEFC401B642801D903209EE7CC4834
:101F400008380068C0F340400028F1D011E0FFF7E6
:101F5000EFFC054606E0FFF7EBFC401B642801D9C7
:101F600003208BE7C24808380068C0F340400028CF
:101F7000F1D1207800F0020002285FD1BC4800684F
:101F800000F00C0058B1BA48006800F00C000828B6
:101F90001CD1B748001F006800F48000B0B9B448F5
:101FA00008380068C0F3400020B1E068012801D083
:101FB000012063E7AE480838006820F0F800216986
:101FC00040EAC100AA490839086037E0E06800B378
:101FD0000120A8490860FFF7ABFC054606E0FFF7C3
:101FE000A7FC401B022801D9032047E7A048083876
:101FF0000068C0F340000028F1D09D480838006810
:1020000020F0F800216940EAC100994908390860C8
:1020100014E0002097490860FFF78AFC054606E0B7
:10202000FFF786FC401B022801D9032026E79048D1
:1020300008380068C0F340000028F1D1207800F093
:10204000080008282CD16069A8B101208A490860DD
:10205000FFF76EFC054606E0FFF76AFC401B02280E
:1020600001D903200AE782486C300068C0F34000C1
:102070000028F1D014E000207F490860FFF758FCE9
:10208000054606E0FFF754FC401B022801D9032057
:10209000F4E677486C300068C0F340000028F1D1C6
:1020A000207800F00400042870D1002770483830F0
:1020B000006800F0805090B900BF002000906C488C
:1020C0003830006840F0805069493831086008466F
:1020D000006800F08050009000BF00BF01276748F3
:1020E000006800F48070B0B96448006840F4807003
:1020F00062490860FFF71CFC054606E0FFF718FC84
:10210000401B022801D90320B8E65C48006800F4AF
:1021100080700028F2D000BFA068012808D1544880
:102120006830006840F001005149683108601DE0E6
:10213000A06805280DD14E486830006840F00400C2
:102140004B49683108600846006840F001000860AB
:102150000CE047486830006820F0010044496831CD
:1021600008600846006820F00400086000BFA0680E
:10217000A8B1FFF7DDFB054609E0FFF7D9FB401BDF
:1021800041F28831884202D9032077E626E03848B8
:1021900068300068C0F340000028EED013E0FFF77D
:1021A000C7FB054608E0FFF7C3FB401B41F288313F
:1021B000884201D9032061E62D4868300068C0F3E9
:1021C00040000028EFD1012F07D12948383000689E
:1021D00020F0805026493831086000BFA0690028EF
:1021E00045D02348006800F00C0008285DD0A069A5
:1021F000022845D100201F490866FFF799FB0546D4
:1022000006E0FFF795FB401B022801D9032035E6C5
:10221000174808380068C0F340600028F1D1D4E9BD
:1022200007010843616A40EA81110122A06AC2EBFA
:10223000500041EA00412C20005D41EA00600C4959
:10224000091F086001200B490866FFF771FB05466E
:1022500006E0FFF76DFB401B022801D903200DE6C5
:10226000034808380068C0F340600028F1D049E016
:102270000838024000004742800E4742007000408C
:10228000002021490866FFF753FB054606E0FFF7EB
:102290004FFB401B022801D90320EFE51B480068D3
:1022A000C0F340600028F2D12CE0A069012800D1E1
:1022B000E4E51648001D0668A069012820D006F450
:1022C0008001E06981421BD106F03F01206A814212
:1022D00016D147F6C0703040616AB0EB811F0FD154
:1022E00006F440310122A06AC2EB5000B1EB004F6E
:1022F00006D106F070612C20005DB1EB006F01D0BB
:102300000120BBE50020B9E500004742003802404B
:102310007047704710B50346002200BF93F83C0099
:10232000012801D1022010BD012083F83C0000BF2C
:1023300022F0FF00CC6840EA040222F440708C686E
:1023400040EA040222F480604C6840EA040222F46D
:1023500000600C6840EA040222F480500C6940EAF4
:10236000040222F400504C6940EA040222F4804046
:10237000CC6940EA04021868426400BF002083F878
:102380003C0000BF00BFCEE730B502460B4600BFA1
:1023900092F83C00012801D1022030BD012082F8D2
:1023A0003C0000BF022082F83D00106844681068BD
:1023B000816824F070041868044310684460184D64
:1023C0001068A8421BD01068B0F1804F17D0154D8F
:1023D0001068A84213D0144D1068A8420FD0134DB6
:1023E0001068A8420BD0124D1068A84207D0114DBA
:1023F0001068A84203D0104D1068A84205D121F002
:1024000080015868014310688160012082F83D0016
:1024100000BF002082F83C0000BF00BFBDE7000005
:10242000000001400004004000080040000C004093
:1024300000040140004001400018004010B504466F
:102440000CB9012010BD94F83D0028B9002084F893
:102450003C00204600F026F8022084F83D00211DB3
:10246000206802F0FDF8012084F8460000BF84F8DF
:102470003E0001213F2001554020015541200155DA
:1024800000BF00BF012084F84200432001554420D2
:1024900001554520015500BF012084F83D00002072
:1024A000D0E7000038B5044656492068884218D164
:1024B00000BF002000905448006840F010005249CE
:1024C00008600846006800F01000009000BF00BFE0
:1024D000002211463620FFF719FB3620FFF706FBD6
:1024E0008FE04A492068884218D100BF0020009040
:1024F0004548006840F020004349086008460068ED
:1025000000F02000009000BF00BF002211463720DD
:10251000FFF7FCFA3720FFF7E9FA72E03C49206840
:1025200088421AD100BF002000903748001D006883
:1025300040F002003449091D08600846006800F0B8
:102540000200009000BF00BF00220F212B20FFF7E8
:10255000DDFA2B20FFF7CAFA53E02E4920688842A3
:1025600011D100BF002000902748001D006840F4F2
:1025700000302549091D08600846006800F4003055
:10258000009000BF3DE024492068884211D100BF7F
:10259000002000901C48001D006840F480201A496B
:1025A000091D08600846006800F48020009000BF04
:1025B00027E01A49206888420FD100BF0020009010
:1025C0001148006840F080000F4908600846006824
:1025D00000F08000009000BF13E01149206888429D
:1025E0000FD100BF002000900748006840F48070C1
:1025F000054908600846006800F48070009000BF3C
:1026000000BF38BD001000404038024000140040B8
:10261000000401400044014000480140001C00400B
:1026200000200040014691F83D00012801D0012022
:102630007047022081F83D001A4B086898421BD071
:102640000868B0F1804F17D0174B0868984213D034
:10265000164B086898420FD0154B086898420BD06B
:10266000144B0868984207D0134B0868984203D06F
:10267000124B086898420CD10868806800F0070285
:10268000062A0CD00868006840F001000B6818604A
:1026900005E00868006840F001000B681860002041
:1026A000C6E70000000001400004004000080040B0
:1026B000000C0040000401400040014000180040B0
:1026C000014691F83D00012801D001207047022009
:1026D00081F83D000868C06840F001000B68D860D0
:1026E0001A4B086898421BD00868B0F1804F17D089
:1026F000174B0868984213D0164B086898420FD0C1
:10270000154B086898420BD0144B0868984207D0C4
:10271000134B0868984203D0124B086898420CD1BA
:102720000868806800F00702062A0CD00868006874
:1027300040F001000B68186005E00868006840F090
:1027400001000B6818600020C0E700000000014095
:102750000004004000080040000C0040000401405C
:1027600000400140001800402DE9F04104460D46AC
:10277000002700BF94F83C00012802D10220BDE8E8
:10278000F081012084F83C0000BF022084F83D0065
:102790002068866826F0770626F47F4620688660E3
:1027A0002868502833D00CDC202850D004DC0028C6
:1027B0004BD0102851D149E0302849D040284CD185
:1027C00039E060282DD0702807D0B0F5805F03D0A5
:1027D000B0F5005F41D10DE041E0D5E902136A6830
:1027E000206801F0BAFF2068866846F07706206806
:1027F000866034E0D5E902136A68206801F0ADFF15
:102800002068806840F480402168886027E0EA689A
:102810006968206802F092F85021206801F0A8FF52
:102820001DE0EA686968206802F09BF86021206872
:1028300001F09EFF13E0EA686968206802F07EF804
:102840004021206801F094FF09E000BF00BF00BFF5
:102850002968206801F08CFF01E0012700BF00BF5C
:10286000012084F83D0000BF002084F83C0000BF38
:10287000384684E72DE9F04104460D4614B901209D
:10288000BDE8F08194F83D0028B9002084F83C00B0
:10289000204600F053F8022084F83D00206880684C
:1028A00044F20701884321688860211D206801F0F7
:1028B000D7FE2068D0F80880206886692068076AFB
:1028C000286840EA080840F203308643A969A868EE
:1028D00040EA0120064340F60C4086434FF2F000E8
:1028E0008643E969E86840EA012006432869000157
:1028F000296A40EA0130064327F0220727F08807BB
:102900006969686840EA011007432068C0F80880D8
:102910002068866120680762012084F8460084F8F8
:102920003E0001213F200155012084F84200432050
:102930000155012084F83D000020A1E710B586B0C4
:102940000446142101A8FDF7D3FC8349206888427E
:1029500030D100BF002000908048006840F00100A6
:102960007E4908600846006800F00100009000BF42
:1029700000BF00BF0020009078481438006840F085
:1029800010007649143908600846006800F010000D
:10299000009000BF00BF4FF4206001900220029021
:1029A0000020039004900120059001A96C48FEF7D7
:1029B000BFFECEE02068B0F1804F4ED100BF0020B6
:1029C00000906648001F006840F001006349091F3D
:1029D00008600846006800F00100009000BF00BFDA
:1029E00000BF002000905D481438006840F00100EE
:1029F0005A49143908600846006800F00100009048
:102A000000BF00BF00BF002000900846006840F0F3
:102A1000020008600846006800F00200009000BF55
:102A200000BF4FF40040019002200290002003906C
:102A300004900120059001A94A48FEF779FE08207C
:102A40000190022002900020039004900120059044
:102A500001A94548FEF76CFE7BE0444920688842A6
:102A600039D100BF002000903C48001F006840F0B2
:102A700002003A49091F08600846006800F0020099
:102A8000009000BF00BF00BF002000903348143802
:102A9000006840F0020031491439086008460068B7
:102AA00000F00200009000BF00BF30200190022023
:102AB00002900020039004900220059001A92A486A
:102AC000FEF736FE002211461D20FFF71FF81D20DD
:102AD000FFF70CF83DE026492068884239D100BF55
:102AE000002000901D48001F006840F004001B49B2
:102AF000091F08600846006800F00400009000BF4D
:102B000000BF00BF0020009014481438006840F057
:102B100008001249143908600846006800F00800EF
:102B2000009000BF00BF4FF440500190022002907F
:102B30000020039004900220059001A90D48FEF7A3
:102B4000F7FD002211461E20FEF7E0FF1E20FEF7D3
:102B5000CDFF06B010BD0000000001404438024027
:102B60000010024000000240000402400004004047
:102B700000080040000C02402DE9F04304460D46D9
:102B800094F83E603F20075D94F84280432010F89F
:102B900004906DB9012E02D1B8F1010F02D00120CD
:102BA000BDE8F083022084F83E0084F8420025E06E
:102BB000042D0CD1012F02D1B9F1010F01D0012058
:102BC000EEE702213F2001554320015516E0012E7A
:102BD00007D1012F05D1B8F1010F02D1B9F1010FD1
:102BE00001D00120DCE7022084F83E0002213F20D2
:102BF0000155022084F842004320015515B1042DEF
:102C00000CD105E001220021206801F095FD10E0C3
:102C100001220421206801F08FFD0AE00122002139
:102C2000206801F089FD01220421206801F084FD63
:102C300000BF00BF2068006840F001002168086004
:102C40000020ADE7704710B5044620680069C0F366
:102C50004000D8B12068C068C0F34000B0B16FF048
:102C6000020021680861012020772068806900F057
:102C7000030018B12046FFF7E5FF05E0204600F00D
:102C800097F9204600F064FA002020772068006958
:102C9000C0F38000D8B12068C068C0F38000B0B134
:102CA0006FF00400216808610220207720688069A5
:102CB00000F4407018B12046FFF7C4FF05E020463D
:102CC00000F076F9204600F043FA002020772068D3
:102CD0000069C0F3C000D8B12068C068C0F3C0006C
:102CE000B0B16FF0080021680861042020772068E7
:102CF000C06900F0030018B12046FFF7A3FF05E00C
:102D0000204600F055F9204600F022FA00202077F6
:102D100020680069C0F30010D8B12068C068C0F313
:102D20000010B0B16FF01000216808610820207712
:102D30002068C06900F4407018B12046FFF782FF98
:102D400005E0204600F034F9204600F001FA0020AA
:102D500020772068006900F0010058B12068C06841
:102D600000F0010030B16FF00100216808612046D9
:102D700000F076FA20680069C0F3C01058B12068EE
:102D8000C068C0F3C01030B16FF0800021680861E6
:102D90002046FFF7BDFA20680069C0F3801058B1E3
:102DA0002068C068C0F3801030B16FF04000216827
:102DB0000861204600F06EFA20680069C0F34010F8
:102DC00058B12068C068C0F3401030B16FF02000E7
:102DD000216808612046FFF79CFA10BD10B586B047
:102DE0000446142101A8FDF783FA67492068884248
:102DF0001DD100BF002000906448006840F0010031
:102E0000624908600846006800F00100009000BFB9
:102E100000BF0E2001900220029000200390049039
:102E20000220059001A95A48FEF782FCA9E0594901
:102E3000206888421ED100BF0020009053480068DF
:102E400040F00400514908600846006800F00400A2
:102E5000009000BF00BF4FF440700190022002902C
:102E60000020039004900320059001A94A48FEF732
:102E70005FFC86E04949206888421DD100BF0020E0
:102E800000904248006840F0200040490860084631
:102E9000006800F02000009000BF00BF40200190BB
:102EA000022002900020039004900320059001A9C5
:102EB0003B48FEF73DFC64E03A49206888421DD15A
:102EC00000BF002000903148006840F020002F49EA
:102ED00008600846006800F02000009000BF00BFB6
:102EE0008020019002200290002003900490032093
:102EF000059001A92A48FEF71BFC42E02A492068F8
:102F000088421DD100BF002000902048006840F09A
:102F100020001E4908600846006800F0200000906C
:102F200000BF00BF8815019002200290002003908E
:102F300004900920059001A91948FEF7F9FB20E04B
:102F40001A49206888421CD100BF002000900F4819
:102F5000006840F001000D4908600846006800F074
:102F60000100009000BF00BF80200190022002906D
:102F70000020039004900920059001A90448FEF761
:102F8000D7FB06B010BD0000000C004030380240F6
:102F900000000240000401400008024000440140DB
:102FA0000014024000480140001C00400020004086
:102FB00070472DE9F04104460D461646002700BF34
:102FC00094F83C00012802D10220BDE8F0810120E4
:102FD00084F83C0000BF36B1042E1BD0082E31D03F
:102FE0000C2E5ED145E02946206801F0CBFB20681D
:102FF000806940F00800216888612068806920F0BD
:103000000400216888612068806929690843216873
:10301000886148E02946206801F0ECFB206880695F
:1030200040F40060216888612068806920F4806035
:103030002168886120688069296940EA0120216847
:10304000886130E02946206801F012FC2068C069E0
:1030500040F008002168C8612068C06920F00400C1
:103060002168C8612068C069296908432168C8616E
:1030700019E02946206801F037FC2068C06940F457
:1030800000602168C8612068C06920F48060216800
:10309000C8612068C069296940EA01202168C861C7
:1030A00001E0012700BF00BF00BF002084F83C0002
:1030B00000BF384689E710B504460CB9012010BDA1
:1030C00094F83D0028B9002084F83C00204600F028
:1030D00025F8022084F83D00211D206801F0C0FA87
:1030E000012084F8460000BF84F83E0001213F2003
:1030F0000155402001554120015500BF00BF01206E
:1031000084F84200432001554420015545200155D3
:1031100000BF012084F83D000020D0E708B50A4A2E
:10312000016891420FD100BF002100910749096851
:1031300041F00801054A11601146096801F00801D3
:10314000009100BF00BF08BD000C004040380240A5
:103150007047000070B504460D4615B994F83E005E
:103160000BE0042D02D13F20005D06E0082D02D1C6
:103170004020005D01E04120005D012801D00120D8
:1031800070BD1DB9022084F83E000EE0042D03D16D
:1031900002213F20015508E0082D03D102214020E3
:1031A000015502E0022141200155012229462068F3
:1031B00001F0C2FA23492068884203D022492068DE
:1031C000884201D1012000E0002028B12068406C35
:1031D00040F40040216848641A49206888421BD0A6
:1031E0002068B0F1804F17D018492068884213D06A
:1031F0001749206888420FD01649206888420BD0B2
:1032000011492068884207D013492068884203D0BA
:103210001249206888420CD12068806800F00706B7
:10322000062E0CD02068006840F00100216808607C
:1032300005E02068006840F0010021680860002077
:103240009EE700000000014000040140000400402F
:1032500000080040000C0040004001400018004001
:1032600010B5044608492068884201D1FEF796FB54
:1032700006492068884205D19FED050A02F082FACE
:1032800001F090F810BD000000180040001400404C
:103290000000F04270477047704700002DE9F84F7A
:1032A0000446206805682068C668206847694FF0B2
:1032B0000009CA4605F00F09B9F1000F0AD105F05F
:1032C000200038B106F0200020B1204601F0ADFB0F
:1032D000BDE8F88FB9F1000F7CD007F0010018B9F4
:1032E00006F49070002875D005F0010030B106F4A6
:1032F000807018B1206C40F00100206405F00400DB
:1033000030B107F0010018B1206C40F002002064D9
:1033100005F0020030B107F0010018B1206C40F058
:103320000400206405F0080048B106F0200010B940
:1033300007F0010018B1206C40F008002064206CF8
:10334000002846D005F0200028B106F0200010B17A
:10335000204601F06AFB20684069C0F3801A206CA7
:1033600000F0080010B9BAF1000F2DD0204601F08E
:1033700016FB2068406900F04000402820D100BFC3
:1033800000BF2168143151E8001F21F0400021687E
:10339000143141E80002002AF3D100BFA06B50B104
:1033A0007548A16B0865A06BFEF703F888B1A06BA8
:1033B000016D88470DE02046FFF76EFF09E009E048
:1033C0002046FFF769FF04E02046FFF765FF002075
:1033D00020647DE7206B012876D105F010000028DD
:1033E00072D006F010000028FAD000BF0020009034
:1033F00020680068009020684068009000BF00BF0F
:103400002068406900F0400040285ED1A06B006851
:1034100040681FFA80F8B8F1000F54D0A08D4045E5
:1034200051DDA4F82E80A06BC069B0F5807F43D039
:1034300000BF00BF21680C3151E8001F21F48070EB
:1034400021680C3141E80002002AF3D100BF00BF1F
:1034500000BF2168143151E8001F21F001002168EC
:10346000143141E80002002AF3D100BF00BF00BFC1
:103470002168143151E8001F21F040002168143107
:1034800041E80002002AF3D100BF202084F83E006A
:103490000020206300BF00BF21680C3151E8001FED
:1034A00021F0100021680C3141E80002002AF3D11C
:1034B00000BFA06BFDF727FFA08DE28D801A81B2BF
:1034C0002046FFF7E8FE03E740E0A08DE18D401ABB
:1034D0001FFA80F8E08DC0B3B8F1000F35D000BFFF
:1034E00000BF21680C3151E8001F21F49070216861
:1034F0000C3141E80002002AF3D100BF00BF00BF39
:103500002168143151E8001F21F0010021681431B5
:1035100041E80002002AF3D100BF202084F83E00D9
:103520000020206300BF00BF21680C3151E8001F5C
:1035300021F0100021680C3141E80002002AF3D18B
:1035400000BF41462046FFF7A6FEC1E605F0800019
:1035500030B106F0800018B1204601F0F9FBB7E663
:1035600005F0400030B106F0400018B1204601F0EF
:103570004CFAADE600BFABE68B49000810B5044637
:103580000CB9012010BDA06900B100E000BF94F8A3
:103590003D0028B9002084F83C00204600F028F8BF
:1035A000242084F83D002068C06820F40050216881
:1035B000C860204601F0B6FA2068006920F4904007
:1035C000216808612068406920F02A00216848616C
:1035D0002068C06840F400502168C8600020206462
:1035E000202084F83D0084F83E000020CAE7000057
:1035F00010B586B00446142101A8FCF779FE3B49BA
:103600002068884239D100BF002000903848006807
:1036100040F01000364908600846006800F01000CD
:10362000009000BF00BF00BF002000903048143859
:10363000006840F001002E4914390860084600680F
:1036400000F00100009000BF00BF4FF4C060019087
:103650000220029000200390032004900720059090
:1036600001A92448FEF764F8002211462520FEF740
:103670004DFA2520FEF73AFA36E01F4920688842C5
:1036800032D100BF002000901948001F006840F4AC
:1036900080201749091F08600846006800F4802050
:1036A000009000BF00BF00BF0020009010481438F9
:1036B000006840F002000E491439086008460068AE
:1036C00000F00200009000BF00BF4FF44060019086
:1036D0000220029000200390032004900720059010
:1036E00001A90648FEF724F806B010BD00100140FD
:1036F00044380240000002400048004000040240FC
:1037000070472DE9F84F04460E46174699464FF08C
:10371000000A94F83D0020285AD106B117B90120BB
:10372000BDE8F88F00BF94F83C00012801D10220C9
:10373000F6E7012084F83C0000BF0020206421202F
:1037400084F83D00FEF7F4F88246A784E784A06879
:10375000B0F5805F04D1206910B90025B04602E0C1
:1037600035464FF0000800BF002084F83C0000BF41
:103770001BE05346002280212046CDF8009001F046
:1037800017FB08B10320CBE745B9B8F80000C0F338
:1037900008002168486008F1020803E028782168E1
:1037A00048606D1CE08C401EE084E08C0028E0D175
:1037B0005346002240212046CDF8009001F0F8FA4F
:1037C00008B10320ACE7202084F83D000020A7E7E3
:1037D0000220A5E7704700BFFEE700001FB50020EC
:1037E00000900190029003901548164908604FF42C
:1037F000803048600021134881600161017680F8C3
:103800002010C162104981620021C1600121C161A3
:10381000002180F8301001214161FDF763FA08B101
:10382000FDF796F90B2000900120019000200290F6
:1038300069460448FDF790F908B1FDF789F91FBD05
:1038400000200140AC0000200100000F10B50E4820
:103850000E4908600420486000210C488160C16066
:103860004FF4302101614FF4E00141610021017604
:1038700041768176C17601774177FDF7A7FA08B1E5
:10388000FDF766F910BD000000640040F400002060
:1038900010B50548054908600846FDF795FB08B1D5
:1038A000FDF756F910BD0000003002405000002026
:1038B00010B50A480A4908600020486020210848DD
:1038C00081600021C1600161416181610162FDF798
:1038D000FFFB08B1FDF73CF910BD000000000550EA
:1038E0001C01002008B500BF002000900A480068B5
:1038F00040F48000084908600846006800F4800031
:10390000009000BF00BF002211463920FEF7FEF8EC
:103910003920FEF7EBF808BD3038024000B587B01B
:10392000142102A8FCF7E4FC00BF002001906948C4
:10393000006840F01000674908600846006800F021
:103940001000019000BF00BF00BF0020019008469A
:10395000006840F0200008600846006800F0200081
:10396000019000BF00BF00BF002001900846006822
:1039700040F0800008600846006800F08000019078
:1039800000BF00BF00BF002001900846006840F063
:10399000040008600846006800F00400019000BFC1
:1039A00000BF00BF002001900846006840F0010001
:1039B00008600846006800F00100019000BF00BFE9
:1039C00000BF002001900846006840F00200086037
:1039D0000846006800F00200019000BF00BF00BF71
:1039E000002001900846006840F008000860084682
:1039F000006800F00800019000BF00BF00BF002079
:103A000001900846006840F04000086008460068E1
:103A100000F04000019000BF00BF002241F63F21AE
:103A20002D48FDF77FFF00224FF442612B48FDF740
:103A300079FF00224FF440512948FDF773FF00221F
:103A40004FF470612748FDF76DFF00224FF40241EB
:103A50002548FDF767FF41F63F20029001200390C3
:103A600000200490059002A91B48FDF761FE4FF469
:103A7000426002900120039000200490059002A96A
:103A80001648FDF755FE4FF4405002900120039078
:103A900000200490059002A91148FDF749FE4FF45B
:103AA000706002900120039000200490059002A90C
:103AB0000C48FDF73DFE4FF40240029001200390B8
:103AC00000200490059002A90748FDF731FE07B0D9
:103AD00000BD0000303802400014024000080240DF
:103AE00000040240000C02400018024010B50748D4
:103AF000074908600020486040F6FF710448816073
:103B0000FDF71CFF08B1FDF723F810BD00300040A1
:103B1000BC01002000B587B01C216846FCF7E8FB1B
:103B2000154816490860002048600021134881604C
:103B30004FF6FF71C160002101618161FEF77EFCDB
:103B400008B1FDF705F80D48FFF7B5FA08B1FCF725
:103B5000FFFF60200090002001900290049000225E
:103B600069460648FFF725FA08B1FCF7F1FF03485C
:103B7000FFF734F907B000BD0044014008040020FD
:103B800000B587B01C216846FCF7B2FB1548164902
:103B90000860002048600021134881604FF6FF71E3
:103BA000C160002101618161FEF748FC08B1FCF7AA
:103BB000CFFF0D48FFF77FFA08B1FCF7C9FF60207F
:103BC000009000200190029004900022694606486F
:103BD000FFF7EFF908B1FCF7BBFF0348FFF7FEF86A
:103BE00007B000BD004801405004002000B587B078
:103BF0001C216846FCF77CFB15481649086000202C
:103C000048600021134881604FF6FF71C1600021B8
:103C100001618161FEF712FC08B1FCF799FF0D48C4
:103C2000FFF749FA08B1FCF793FF602000900020ED
:103C3000019002900490002269460648FFF7B9F906
:103C400008B1FCF785FF0348FFF7C8F807B000BDCF
:103C5000001C00409804002000B587B01C21684675
:103C6000FCF746FB15481649086000204860002113
:103C7000134881604FF6FF71C160002101618161CD
:103C8000FEF7DCFB08B1FCF763FF0D48FFF713FA02
:103C900008B1FCF75DFF60200090002001900290C9
:103CA0000490002269460648FFF783F908B1FCF743
:103CB0004FFF0348FFF792F807B000BD0020004017
:103CC000E004002000B58BB0242102A8FCF710FB13
:103CD00000200090019019481949086000204860B0
:103CE00000211748816042F20F71C160002101611B
:103CF0004161802181610120029000200390012018
:103D00000490002005900690079001200890002064
:103D100009900A9002A90A48FEF7ACFD08B1FCF729
:103D200017FF00200090019069460548FEF72CFB24
:103D300008B1FCF70DFF0BB000BD00000000014012
:103D4000C801002000B58BB0242102A8FCF7D0FAEE
:103D50000020009001904FF080401849086000203A
:103D6000486000211548816042F20F71C160002156
:103D700001618021816101200290002003900120D7
:103D800004900020059006900790012008900020E4
:103D900009900A9002A90948FEF76CFD08B1FCF7EA
:103DA000D7FE00200090019069460448FEF7ECFA27
:103DB00008B1FCF7CDFE0BB000BD000010020020E2
:103DC00000B58BB0242102A8FCF792FA00200090E5
:103DD00001901848184908600020486000211648E2
:103DE000816042F20F71C160002101618021816117
:103DF00001200290002003900120049000200590F3
:103E00000690079001200890002009900A9002A9CE
:103E10000948FEF72FFD08B1FCF79AFE002000903C
:103E2000019069460448FEF7AFFA08B1FCF790FE2E
:103E30000BB000BD000400405802002000B58BB05C
:103E4000242102A8FCF754FA0020009001901848A1
:103E5000184908600020486000211648816042F23D
:103E60000F71C160002101618021816101200290F8
:103E700000200390012004900020059006900790F8
:103E800001200890002009900A9002A90948FEF735
:103E9000F1FC08B1FCF75CFE00200090019069463F
:103EA0000448FEF771FA08B1FCF752FE0BB000BDF2
:103EB00000080040A002002000B589B00020079053
:103EC00008901C216846FCF713FA20482049086036
:103ED0005320486000211E48816042F20F71C1608A
:103EE000002101618161FFF7E6F808B1FCF730FEBF
:103EF00000200790089007A91548FEF745FA08B179
:103F0000FCF726FE602000900020019002900490B3
:103F1000042269460E48FFF74CF808B1FCF718FE7A
:103F2000082269460A48FFF744F808B1FCF710FE7A
:103F30000C2269460648FFF73CF808B1FCF708FE7A
:103F40000348FEF74BFF09B000BD0000000C004025
:103F5000E80200201CB50020009001900E480F4997
:103F6000086044F29F10486000210C48816042F2D2
:103F70000F71C16000218161FEF760FA08B1FCF7A2
:103F8000E7FD00200090019069460448FEF7FCF927
:103F900008B1FCF7DDFD1CBD00100040300300201F
:103FA0001CB50020009001900E480F490860532076
:103FB000486000210C4881604CF25031C160002102
:103FC0008161FEF73BFA08B1FCF7C2FD00200090CA
:103FD000019069460448FEF7D7F908B1FCF7B8FD2F
:103FE0001CBD0000001400407803002000B595B00F
:103FF000002011901290139014900F9010901C219B
:1040000008A8FCF775F920216846FCF771F92F48DC
:104010002F490860A720486000212D48816042F2A6
:104020000F71C1600021016141618161FEF706FAF3
:1040300008B1FCF78DFD4FF48050119011A9244870
:10404000FEF792FB08B1FCF783FD2148FFF733F838
:1040500008B1FCF77DFD00200F9010900FA91C48BF
:10406000FEF792F908B1FCF773FD6020089000207C
:1040700009900A900B900C900D900E90082208A9C0
:104080001348FEF796FF08B1FCF762FD0C2208A961
:104090000F48FEF78EFF08B1FCF75AFD0020009094
:1040A00001900290039004904FF40050059000207E
:1040B000079069460648FEF72DF908B1FCF748FD60
:1040C0000348FEF78BFE15B000BD00000004014060
:1040D000C003002010B50B480B4908604FF4E130D5
:1040E0004860002108488160C16001610C21416184
:1040F00000218161C161FFF741FA08B1FCF728FD99
:1041000010BD0000001001402805002010B50B482C
:104110000B4908604FF4E130486000210848816095
:10412000C16001610C21416100218161C161FFF722
:1041300025FA08B1FCF70CFD10BD00000048004056
:104140006C05002000BFFEE710B53C212B48FEF7B0
:1041500013FD3C212A48FEF70FFD3C212948FEF7BC
:104160000BFD3C212848FEF707FD24480068C06885
:1041700040F0010021490968C86021480068C06812
:1041800040F001001E490968C8601E480068C06808
:1041900040F001001B490968C8601B480068C068FE
:1041A00040F0010018490968C86041F2883013499D
:1041B00009684862124909684862124909684862F8
:1041C0001149096848621148FEF72CFA0F48FEF7BA
:1041D00029FA04210D48FEF7BDFF08210B48FEF720
:1041E000B9FF0C210948FEF7B5FF0C210848FEF77E
:1041F000B1FF0848FEF764FA10BD0000C8010020B6
:104200001002002058020020A0020020E802002036
:10421000C00300207803002000BFFEE7F0EE400A54
:1042200090ED000A30EE600A80ED070A90ED070A73
:10423000B5EEC00AF1EE10FA02DD90ED070A03E0D8
:1042400090ED070AB1EE400A90ED021AB4EEC10AF1
:10425000F1EE10FA02D29FED520A704790ED070A74
:1042600090ED061A30EE410A80ED090A90ED000A41
:1042700080ED010A90ED070A90ED0A1AB1EE411A9D
:10428000B4EEC10AF1EE10FA18DD90ED070A90EDD8
:104290000A1AB4EEC10AF1EE10FA0FD290ED070A35
:1042A00090ED061A30EE010AF0EE001A80EE211AA7
:1042B00090ED080A31EE000A80ED080A90ED070A39
:1042C00080ED060A90ED080A90ED0B1AB4EEC10AD3
:1042D000F1EE10FA04DB90ED0B0A80ED080A10E015
:1042E00090ED080A90ED0B1AB1EE411AB4EEC10A36
:1042F000F1EE10FA05D890ED0B0AB1EE400A80ED10
:10430000080A90ED030A90ED071A20EE010A80EDED
:104310000C0A90ED040A90ED081A20EE010A80EDD7
:104320000D0A90ED050A90ED091A20EE010A80EDC4
:104330000E0A90ED0C0A90ED0D1A30EE010A90ED88
:104340000E1A30EE010A90ED0F1AB1EE411AB4EEDA
:10435000C10AF1EE10FA04D890ED0F0AB1EE400A4E
:104360007BE790ED0C0A90ED0D1A30EE010A90ED0E
:104370000E1A30EE010A90ED0F1AB4EEC10AF1EEFA
:1043800010FA02DB90ED0F0A67E790ED0C0A90ED52
:104390000D1A30EE010A90ED0E1A30EE010A5CE7BC
:1043A000000000002DE9F0412DED068B4948006822
:1043B000406AA0F59855883D2846FCF785F841EC01
:1043C0001A0B9FED450B53EC102BFCF70EF841EC4C
:1043D000190B9FED430B53EC102BFBF794FF41ECB3
:1043E000180BFCF795F84049086041F288303949CC
:1043F000096848623D480068406AA0F59856883EC2
:104400003046FCF761F841EC1A0B9FED330B53EC8F
:10441000102BFBF7EAFF41EC190B9FED310B53EC2E
:10442000102BFBF770FF41EC180BFCF771F83049CB
:10443000086041F288302D49096848622D480068BB
:10444000406AA0F59854883C2046FCF73DF841ECC2
:104450001A0B9FED210B53EC102BFBF7C6FF41EC21
:10446000190B9FED1F0B53EC102BFBF74CFF41EC8E
:10447000180BFCF74DF82049086041F288301D49BF
:10448000096848621D480068406AA0F59857883F4F
:104490003846FCF719F841EC1A0B9FED0F0B53EC63
:1044A000102BFBF7A2FF41EC190B9FED0D0B53EC0A
:1044B000102BFBF728FF41EC180BFCF729F81049EB
:1044C000086041F288300D4909684862BDEC068BEE
:1044D000BDE8F081C80100200000000000D0A94024
:1044E0000000000000C0A2400000002010020020D8
:1044F000040000205802002008000020A002002034
:104500000C00002010B500BF502080F31188BFF3CD
:104510004F8FBFF36F8F00BF01F0C8FA18B14FF093
:1045200080500449086000BF002080F3118800BF5C
:1045300010BD000004ED00E000B593B0302107A8E5
:10454000FBF7D6FE142102A8FBF7D2FE00BF002025
:1045500001902648006840F08050244908600846D1
:10456000006800F08050019000BF00BF00BF002035
:1045700001901F48006840F480401D4908600846CB
:10458000006800F48040019000BF00BF0A2007903F
:1045900001200A9010200B9001200C9002200D9019
:1045A00000210E9108210F91A82110910221119153
:1045B0000421129107A8FDF75DFC08B1FCF7C8FAC9
:1045C0000F20029002200390002004904FF4A0508E
:1045D00005904FF480500690052102A8FDF7E8FAF7
:1045E00008B1FCF7B5FA13B000BD00004038024036
:1045F000007000400348006840F470000149086002
:104600007047000088ED00E010B50248FEF71BFB84
:1046100010BD00005802002010B50248FEF713FB41
:1046200010BD0000A002002010B50248FEF70BFBF1
:1046300010BD00003003002010B50248FEF703FB58
:1046400010BD00007803002010B50348FEF7FBFA08
:104650000248FEF7F8FA10BDC0030020B0050020A4
:1046600010B50268294B98420ED0B0F1804F0BD0A4
:10467000274B984208D0274B984205D0264B9842AA
:1046800002D0264B984203D122F070024B681A43A5
:104690001E4B984220D0B0F1804F1DD01C4B984249
:1046A0001AD01C4B984217D01B4B984214D01B4B6E
:1046B000984211D01A4B98420ED01A4B98420BD008
:1046C000194B984208D0194B984205D0184B984284
:1046D00002D0184B984203D122F44072CB681A439F
:1046E00022F080034C6943EA040202608B68C362D3
:1046F0000B688362054B984202D0084B984201D167
:104700000B6903630123436110BD000000000140F9
:104710000004004000080040000C0040000401407C
:1047200000400140004401400048014000180040A2
:10473000001C00400020004030B501F01F0501249E
:1047400004FA05F3046A9C430462046A01F01F053D
:1047500002FA05F52C43046230BD30B50C46816881
:1047600021F47F4142EA032525432943816030BD7E
:104770000A46816821F0700142F007031943816005
:104780007047000030B5056A25F001050562026A30
:104790004368846924F0700424F003040D682C43FA
:1047A00022F002028D682A43104DA84200D103E096
:1047B0000F4DA84206D100BF22F00802CD682A435F
:1047C00022F00402094DA84202D0094DA84207D1A7
:1047D00023F4807323F400734D692B438D692B43BD
:1047E000436084614D684563026230BD0000014052
:1047F0000004014030B5056A25F010050562026A23
:104800004368846924F4E04424F440740D6844EA65
:10481000052422F020028D6842EA0512124DA842BA
:1048200000D103E0114DA84207D100BF22F0800261
:10483000CD6842EA051222F040020B4DA84202D098
:104840000A4DA84209D123F4806323F400634D6923
:1048500043EA85038D6943EA8503436084614D68BB
:104860008563026230BD0000000001400004014089
:1048700030B5056A25F480750562026A4368C4692B
:1048800024F0700424F003040D682C4322F4007219
:104890008D6842EA0522124DA84200D103E0114D75
:1048A000A84207D100BF22F40062CD6842EA052287
:1048B00022F480620A4DA84202D00A4DA84209D1D2
:1048C00023F4805323F400534D6943EA05138D69A3
:1048D00043EA05134360C4614D68C563026230BD9D
:1048E000000001400004014030B5056A25F4805500
:1048F0000562036A4468C26922F4E04222F440720D
:104900000D6842EA052223F400538D6843EA05331B
:10491000084DA84202D0084DA84204D124F4804496
:104920004D6944EA85144460C2614D6805640362C0
:1049300030BD0000000001400004014030B50B46CE
:104940001446026A056A25F001050562816921F0B5
:10495000F00141EA041122F00A021A438161026265
:1049600030BD30B50B461446056A25F010050562CA
:104970008169026A21F4704141EA043122F0A00207
:1049800042EA03128161026230BD70B50546AC6B2C
:104990000020E085E0842046FEF77EFC70BD00BF6D
:1049A00000BF02680C3252E8002F22F490710268B6
:1049B0000C3242E80013002BF3D100BF00BF00BF50
:1049C0000268143252E8002F22F00101026814320A
:1049D00042E80013002BF3D100BF016B01290ED177
:1049E00000BF00BF02680C3252E8002F22F0100115
:1049F00002680C3242E80013002BF3D100BF2021E3
:104A000080F83E1000210163704710B5044620680D
:104A1000C06820F040002168C860202084F83D0074
:104A20002046FEF7D7FE002010BDF8B5044694F8E6
:104A30003E00222873D1A068B0F5805F0CD12069B8
:104A400050B90025A66A20684068C0F3080030808D
:104A5000A06A801CA06215E0A56A0026A068B0F5D7
:104A6000805F03D0A06828B9206918B92068406821
:104A7000287004E02068406800F07F002870A06A79
:104A8000401CA062E08D401E80B2E085002844D129
:104A90002068C06820F020002168C8602068C068D5
:104AA00020F480702168C8602068406920F001000F
:104AB00021684861202084F83E00206B012826D11F
:104AC0000020206300BF00BF21680C3151E8001FA7
:104AD00021F0100021680C3141E80002002AF3D1D6
:104AE00000BF2068006800F0100010280AD100BF45
:104AF00000200090206800680090206840680090C6
:104B000000BF00BFA18D2046FEF7C5FB02E0204696
:104B1000FEF7F6FD0020F8BD01E00020FBE70220D3
:104B2000F9E700002DE9F84F04462068006920F4F9
:104B30004050E1680843216808612169A068084382
:104B400061690843E169084300902068C06849F240
:104B50000C618843009908432168C8602068406957
:104B600020F44070A16908432168486176492068B3
:104B7000884203D075492068884203D1FDF712F9B5
:104B8000814602E0FDF7FEF88146E069B0F5004F8E
:104B90006CD102206168A0FB015003461920A9FBDB
:104BA000007001462A463846FBF76AFB6421B0FBD9
:104BB000F1F04FEA001A02206168A0FB01510B4698
:104BC0001920A9FB00712A463846FBF759FB83469A
:104BD00002206168A0FB015003461920A9FB007167
:104BE0002A463846FBF74CFB6421B0FBF1F000EBA2
:104BF000C00101EB0010ABEB8000322101EBC000E3
:104C00006421B0FBF1F000F0F8000AEB400A02204A
:104C10006168A0FB015003461920A9FB0070014602
:104C20002A463846FBF72CFB834602206168A0FB2E
:104C3000015003461920A9FB00712A463846FBF7AC
:104C40001FFB6421B0FBF1F000EBC00101EB001091
:104C5000ABEB8000322101EBC0006421B0FBF1F02E
:104C600000F007005044216888606AE00420616811
:104C7000A0FB015003461920A9FB007001462A46FB
:104C80003846FBF7FDFA824604206168A0FB01501C
:104C900003461920A9FB007001462A463846FBF757
:104CA000EFFA6421B0FBF1F000EBC00101EB001062
:104CB000AAEB8000322101EB00106421B0FBF1F07F
:104CC00000F0F00A04206168A0FB0170034619207F
:104CD000A9FB00513A462846FBF7D2FA6421B0FB03
:104CE000F1F00AEB001A04206168A0FB01510B46A9
:104CF0001920A9FB00712A463846FBF7C1FA834602
:104D000004206168A0FB015003461920A9FB007034
:104D100001462A463846FBF7B3FA6421B0FBF1F0AE
:104D200000EBC00101EB0010ABEB8000322101EB86
:104D300000106421B0FBF1F000F00F005044216836
:104D40008860BDE8F88F00000010014000140140A9
:104D5000014691F83D00212828D18868B0F5805F90
:104D60000BD1086948B90A6A1088C0F308000B68BB
:104D70005860086A801C086205E00B6A581C0862CB
:104D800018780B685860C88C401E80B2C88458B927
:104D90000868C06820F080000B68D8600868C068A8
:104DA00040F040000B68D860002070470220FCE70C
:104DB0002DE9F04104460D4617469846069E34E01C
:104DC000701C88B32EB1FCF7B3FDA0EB0800B04215
:104DD0002BD900BF00BF21680C3151E8001F21F41E
:104DE000D07021680C3141E80002002AF3D100BFE5
:104DF00000BF00BF2168143151E8001F21F00100FD
:104E00002168143141E80002002AF3D100BF2020BC
:104E100084F83D0084F83E0000BF002084F83C0088
:104E200000BF0320BDE8F081FFE72068006828404C
:104E3000A84201D1012000E00020B842C0D00020EB
:104E4000F0E7000010B50248FEF728FA10BD000098
:104E50002805002000BFFEE70FB4054B10B503A9DD
:104E6000044A029800F0F6F810BC5DF814FB00004C
:104E7000C1580008A800002002480068C0F30220C2
:104E8000704700000CED00E010B5002804DB0A07B5
:104E9000130E054A135406E00A07140E034A00F0E5
:104EA0000F031B1FD45410BD00E400E018ED00E018
:104EB00002E008C8121F08C1002AFAD170477047E3
:104EC000002001E001C1121F002AFBD17047000041
:104ED0002DE9FF5F82B00021DDE90430020DDDF82D
:104EE00040B0034318D044F61050A2F2FF324243C0
:104EF0001514119801281FD0A5EB0B00401C5FEA88
:104F0000000A4FF000064E4FDFF83891B046504689
:104F100015D5CAF1000413E0119801244AA3012811
:104F200001D16FEA0B010298119AC0E90031C0E982
:104F3000024206B0BDE8F09FCBF10000DFE7044677
:104F40000021404A491842EB0450CDE9001012E01C
:104F5000E00707D032463B4640464946FBF7D3F9C7
:104F60008046894632463B4610461946FBF7CBF948
:104F700006460F466410002CEAD1DDE90401DDE9A4
:104F80000023BAF1000F06DAFBF7BDF942464B46A3
:104F9000FBF7B9F905E0FBF728FA42464B46FBF769
:104FA00024FA04460E460022284BFBF755FC03D892
:104FB0004FF0FF30014607E00022254B20463146E6
:104FC000FBF78BFBFBF730FC102409E0002C0ADB1D
:104FD0000A220023FBF754F9039B30321A55641E52
:104FE00050EA0102F2D1641C039AC4F11103144483
:104FF000119A012A03D0012208430DD10AE0084387
:1050000004D000204FF0110B119072E7A3EB0B05B9
:105010006D1E0DE05B4504DD4FF0000205F101055A
:1050200004E003DA4FF00002A5F10105002AECD0FC
:1050300002981199C0E90231C0E9004579E7000002
:10504000000014400000F03F300000000000F0437A
:105050000000E03F2DE9FF4F95B09B46894606468C
:1050600000250FE2252877D100242746F84A0121A0
:10507000059400E0044316F8013F203B01FA03F0D9
:105080001042F7D130782A2811D06FF02F033078F2
:10509000A0F13002092A16D8059A44F0020402EB66
:1050A000820203EB42021044761C0590EFE759F8A8
:1050B000042B0592002A03DA504244F40054059070
:1050C00044F00204761C30782E2816D116F8010F11
:1050D00044F004042A280DD06FF02F023078A0F19C
:1050E0003003092B09D807EB870302EB4303C718EA
:1050F000761CF3E759F8047B761C30786C280FD0C7
:1051000006DC4C2817D068280DD06A2814D104E09A
:10511000742810D07A280FD10DE044F400140AE06E
:1051200044F4801401E044F440147278824202D1C5
:1051300004F58014761C761C307866280BD013DCBE
:10514000582877D009DC002875D04528F6D04628A5
:10515000F4D047281AD19DE118E0632835D064289F
:1051600079D0652812D195E1702873D008DC6728C2
:10517000F1D069286FD06E280DD06F2806D1B5E028
:1051800073282CD0752875D0782874D05A46179972
:1051900090476D1C75E1C4F30250022809D0032822
:1051A0000DD0D9F8001004280DD00D6009F10409C4
:1051B00067E1D9F80010EA17C1E90052F6E7D9F81B
:1051C00000100D80F2E70D70F0E719F8041B8DF860
:1051D000001000208DF80100EA46012003E059F894
:1051E00004AB4FF0FF3061074FF0000102D40DE037
:1051F00008F101018846B9420FDA8045F8DB1AF858
:1052000008100029F4D108E008F101018846814224
:10521000FADB1AF808100029F6D105985B46A0EBD6
:10522000080721463846179A00F094FA284400EB04
:10523000080507E04DE029E10DE01AF8010B5A4698
:1052400017999047B8F10108F7D25B4621463846D6
:10525000179A13E142E00A220092C4F302524FF07F
:10526000000A022A08D059F804CB032A4FEAEC714D
:105270000AD00DE029E02AE009F1070121F0070238
:10528000F2E802C1914609E00FFA8CFC4FEAEC719A
:10529000042A03D14FFA8CFC4FEAEC71002907DA9B
:1052A0000A460021DCF1000C61EB02012D2202E034
:1052B000220504D52B228DF80420012203E0E20709
:1052C00001D02022F7E7904659E00A2102E010229F
:1052D0000DE010214FF0000A00910BE010224FF07A
:1052E000000A44F004040827009203E008224FF06B
:1052F000000A0092C4F30252022A05D059F804CBE6
:105300000021032A08D009E009F1070121F0070272
:10531000F2E802C1914605E01FFA8CFC042A01D193
:105320000CF0FF0C4FF00008220728D5702806D09B
:10533000009B83F0100353EA0A0305D00EE04022DD
:105340008DF80420012208E05CEA010206D0302238
:105350008DF804208DF8050002229046009B83F012
:10536000080353EA0A030AD15CEA010201D1620789
:1053700005D530228DF804204FF001087F1E5828F3
:1053800004D034A003900EA802900DE036A0F9E7F7
:1053900053466046009AFAF773FF84460398825C8E
:1053A0000298401E029002705CEA0100F0D102985F
:1053B00006A9081A00F1200A600702D524F48034F7
:1053C00000E00127574502DDA7EB0A0000E00020BE
:1053D00000EB0A01009005984144401A0590E00353
:1053E00006D45B462146179A059800F0B3F90544A8
:1053F000002706E001A85A46C05D179990476D1C2A
:105400007F1C4745F6DBE0030CD55B462146179A27
:10541000059800F09FF9054404E030205A4617999A
:1054200090476D1C0099481E00900029F5DC08E0AB
:10543000029802995A460078491C029117999047A0
:105440006D1CBAF10001AAF1010AF1DC65E100006E
:10545000092801003031323334353637383961624A
:10546000636465660000000030313233343536370E
:1054700038394142434445460000000000F058F9E5
:105480000544761C307800287FF4ECAD19B028462E
:10549000BDE8F08F620700D4062709F1070222F069
:1054A000070CFCE80223E14603F000485FEA080C21
:1054B00002D00FF2702C0DE05FEA045C02D50FF20F
:1054C000682C07E05FEAC47C02D00FF2602C01E098
:1054D000AFF2700C4FF0FF3823F00043CDF850C00E
:1054E00065280CD006DC452809D046281DD0472861
:1054F0003DD13DE0662818D067287ED138E00021F4
:10550000112F01DB112000E0781CCDE9000106A974
:105510000EA8FFF7DDFCDDE90F010E9A03910021D3
:10552000009207F1010A04914DE04FF0004000970E
:10553000CDE9011006A90EA8FFF7CAFCDDE90F02AC
:1055400003920E9B11990022DDF80CA000930492A7
:1055500011B9791C00EB010AB7EB0A0004D4C0F1C1
:10556000FF3007F1010A0490AAEB0700019044E024
:10557000012F00DA01270021112F01DD112000E0A9
:105580003846CDE9000106A90EA8FFF7A1FCDDE928
:105590000F010E9A0391002104910092BA4621074F
:1055A0000CD40399514500DA8A46BAF1010F05DDA2
:1055B000009AAAF10101515C302908D0B84202DA00
:1055C00010F1040F06DA0121CDE9011015E0AAF16E
:1055D0000101E9E7002805DC049901440491AAEBE4
:1055E000000102E0411C514500DD8A460499401A41
:1055F000401C01904FF000400290200704D4019815
:10560000504501DBCDF8048000208DF84F00029852
:105610000DF14F07B0F1004F25D02B200E900298CE
:105620004FF0020800280CDA404202902D200E9024
:1056300007E00A210298FAF787FF3031029007F855
:10564000011DB8F10001A8F10108F2DC0298002860
:10565000EFD1791E0E980870307800F0200040F0ED
:10566000450007F8020D12A8C01B00F107081498A6
:10567000007800B1012000EB0A01019801EBE07114
:1056800005984144401A401E0590E00306D45B464D
:105690002146179A059800F05DF8054414980078A3
:1056A00018B15A46179990476D1CE00324D55B4604
:1056B0002146179A059800F04DF805441CE004981F
:1056C000002807DBDDE90301884203DD0098405C28
:1056D000179901E0179930205A469047049805F130
:1056E0000105401C04900198401E019004D12E2019
:1056F0005A46179990476D1CBAF10001AAF1010AA8
:10570000DDDC05E017F8010B5A46179990476D1C30
:10571000B8F10001A8F10108F4DC5B462146179AB4
:105720000598ABE62D0000002B00000020000000D3
:105730002DE9F041044600251E461746880404D48E
:1057400005E039462020B0476D1C641EF9D5284677
:10575000BDE8F0812DE9F041044600251E46904643
:10576000C80301D5302700E02027880404D505E0D0
:1057700041463846B0476D1C641EF9D52846BDE841
:10578000F08100002DE9F0412DED028BB0EE408A52
:10579000434880ED008A4348D0ED000AF5EEC00A88
:1057A000F1EE10FA02DDD0ED000A04E03D48D0ED44
:1057B000000AF1EE600AB0EE600A3948FEF72EFDED
:1057C000DFED390A20EE200ABDEEC00A10EE104AC5
:1057D0003648D0ED000AF5EEC00AF1EE10FA02DD0F
:1057E000D0ED000A04E03148D0ED000AF1EE600A85
:1057F000B0EE600A2A48FEF711FDDFED2B0A20EE1D
:10580000200ABDEEC00A10EE105A2948D0ED000A59
:10581000F5EEC00AF1EE10FA02DDD0ED000A04E068
:105820002348D0ED000AF1EE600AB0EE600A1C4891
:10583000FEF7F4FCDFED1C0A20EE200ABDEEC00AE4
:1058400010EE106A1B48D0ED000AF5EEC00AF1EE2A
:1058500010FA02DDD0ED000A04E01648D0ED000A8F
:10586000F1EE600AB0EE600A0D48FEF7D7FCDFEDFE
:105870000E0A20EE200ABDEEC00A10EE107A0E4885
:10588000006884630C480068C5630B4800680664C0
:105890000A4800680764BDEC028BBDE8F081000097
:1058A00010000020000000209ED899420400002033
:1058B000080000200C000020E8020020C0030020A7
:1058C00013B50C464FF0FF33012269460248FDF73D
:1058D00018FF00981CBD000028050020FCF76AF89E
:1058E000FEF72AFEFEF71AF8FDF7FCFFFDF7D0FFE2
:1058F000FEF728FAFEF764FAFEF7A0FAFEF7EAFBD5
:10590000FDF76CFFFDF7A2FFFEF7F0F8FEF7DAF9FE
:10591000FEF7D2FAFEF7FAFBFEF7FCF8FEF730F9D5
:10592000FEF764F9FEF798F9FDF7C2FFFEF75EFB9C
:10593000FEF710FBFEF734FBFEF706FC01E000F07B
:1059400001F8FCE700B52DED088B87B0C820FBF708
:10595000DBFE1B4890ED000A10EE101A0846FAF71D
:10596000C4FD41EC180B174890ED000A10EE101A18
:105970000846FAF7BAFD41EC190B134890ED000AFE
:1059800010EE101A0846FAF7B0FD41EC1A0B0F485A
:1059900090ED000A10EE101A0846FAF7A6FD41EC49
:1059A0001B0B8DED048B8DED029B8DED00AB53EC4D
:1059B0001B2B07A0FFF750FA07B0BDEC088B00BD0A
:1059C0000C0000200800002004000020000000203F
:1059D000252E32662C252E32662C252E32662C255D
:1059E0002E32660A0000000009480068006808B905
:1059F000012000E0002020B14FF0FF300549086091
:105A000005E003480068C068006802490860704704
:105A10006C000020980000201F48006818B1012089
:105A20001E49086036E000201C49086000BF1C4881
:105A30000068B0FA80F0C0F11F0101EB8100194A43
:105A400052F8200008B1012000E0002050B900BF4A
:105A5000502080F31188BFF34F8FBFF36F8F00BFCB
:105A600000BFFEE700BF01EB81020E4B03EB82009B
:105A700042685268426000F108024368934201D1D3
:105A8000C26842604268D268074B1A6000BF00BF1C
:105A90001846006870470000A40000208C00002019
:105AA00080000020F8050020680000202DE9F0416A
:105AB0004FF000086548006800287DD16448006800
:105AC000451C634805601DBB00BF62480068006854
:105AD00008B9012000E0002050B900BF502080F339
