:020000040800F2
:10000000400C0020E90200089B2D000899250008FB
:10001000992D0008090600088D3300080000000033
:10002000000000000000000000000000290200089D
:10003000B906000800000000850200089D2D000898
:100040000303000803030008030300080303000878
:100050000303000803030008030300080303000868
:100060000303000803030008030300080303000858
:100070000303000803030008030300080303000848
:100080000303000803030008030300080303000838
:100090000303000803030008030300080303000828
:1000A0000303000803030008030300080303000818
:1000B00003030008712E00087D2E000803030008CA
:1000C00003030008030300080303000803030008F8
:1000D000030300088133000803030008030300083A
:1000E00003030008030300080303000803030008D8
:1000F00003030008030300080303000803030008C8
:100100000303000803030008892E00080303000806
:100110000303000803030008952E000803030008EA
:100120000303000831060008030300080303000866
:100130000303000803030008030300080303000887
:100140000303000803030008030300080303000877
:100150000303000803030008030300080303000867
:100160000303000803030008030300080303000857
:100170000303000803030008250600080000000030
:10018000030300080303000800F002F800F03CF845
:100190000AA090E8000C82448344AAF10107DA45E2
:1001A00001D100F031F8AFF2090EBAE80F0013F0F8
:1001B000010F18BFFB1A43F0010318473034000049
:1001C00050340000103A24BF78C878C1FAD85207DA
:1001D00024BF30C830C144BF04680C6070470000C1
:1001E0000023002400250026103A28BF78C1FBD840
:1001F000520728BF30C148BF0B6070471FB503F0DE
:10020000DFF91FBD10B510BD00F02FF91146FFF743
:10021000F5FF03F0CCF800F04DF903B4FFF7F2FF5F
:1002200003BC00F055F900002C4B19680868B0E8D1
:10023000F04F80F30988BFF36F8F4FF0000080F319
:10024000118870470000000008480068006880F3CB
:1002500008884FF0000080F3148862B661B6BFF3DF
:100260004F8FBFF36F8F00DF00BF00BF08ED00E0CE
:10027000DFF80C00016841F470010160704700BFB5
:1002800088ED00E0EFF30980BFF36F8F134B1A681E
:100290001EF0100F08BF20ED108A20E9F04F10600B
:1002A00009B44FF0500080F31188BFF34F8FBFF3B4
:1002B0006F8F03F0B7F84FF0000080F3118809BC8E
:1002C00019680868B0E8F04F1EF0100F08BFB0ECD6
:1002D000108A80F30988BFF36F8F704718000020E1
:1002E000EFF3058070470000094880470948004740
:1002F000FEE7FEE7FEE7FEE7FEE7FEE7FEE7FEE7D6
:10030000FEE7FEE704480549054A064B7047000032
:10031000612E00088901000840060020400C0020E2
:10032000400800204008002053EA020C00F06980D9
:100330002DE9F04B4FF00006002B1FBFB3FA83F5F9
:1003400003FA05F424FA05F65E4012BF1643B2FA2A
:1003500082F502FA05F4C5F120051EBF22FA05FC5C
:1003600044EA0C04203556EA044C4FEA144418BF02
:10037000641C4FF000084FF00009904271EB030C31
:1003800039D3002919BFB1FA81F701FA07F6B0FA9B
:1003900080F700FA07F6C7F120071EBF20FA07FC16
:1003A00046EA0C062037B6FBF4FCA7EB0507103F26
:1003B00007F01F0BCBF120060CFA0BFB2CFA06F60C
:1003C00044BFB3460026202FA4BF5E464FF0000B6B
:1003D0005BEA060C08BF4FF0010B19EB0B09ABFBF6
:1003E000027C48EB0608C01B06FB02CC0BFB03CCCF
:1003F00071EB0C01C1E70B46024641464846BDE899
:10040000F08B13B54FF000004FF00001AFF3008008
:10041000BDE81C4070474FF0000200B513469446FB
:100420009646203922BFA0E80C50A0E80C50B1F14C
:100430002001BFF4F7AF090728BFA0E80C5048BF60
:100440000CC05DF804EB890028BF40F8042B08BFFE
:10045000704748BF20F8022B11F0804F18BF00F8FA
:10046000012B7047704770477047754600F02CF8B5
:10047000AE4605006946534620F00700854618B091
:1004800020B5FFF73FFFBDE820404FF000064FF0DA
:1004900000074FF000084FF0000B21F00701AC46B9
:1004A000ACE8C009ACE8C009ACE8C009ACE8C009D8
:1004B0008D46704710B50446AFF300802046BDE876
:1004C0001040FFF7AABE000000487047DC0500207E
:1004D00001491820ABBEFEE726000200704700006D
:1004E000464910B54A6822F440324A604A68436877
:1004F0001A434A6001684A6822F480724A600168BF
:100500004A68036942EA03224A6001684A6822F0A5
:1005100040724A6001684A6883681A434A60016809
:100520008A6822F400628A6001688A68C3681A4394
:100530008A60816A6FF07062D14201688A6822F035
:1005400070628A6001688A680CD0836A1A438A6084
:1005500001688A6822F040528A6001688A68C36A2A
:100560001A4301E022F040528A6001688A6822F052
:1005700002028A6001688A68037E42EA43028A6056
:1005800090F82010002901684A680FD042F40062F8
:100590004A6001684A6822F460424A6001684A6819
:1005A000174C436A04EB43331A4301E022F4006220
:1005B0004A600168CA6A22F47002CA620168CA6AA3
:1005C000838B104C04EB03531A43CA6201688A6898
:1005D00022F400728A6001688A6890F8303042EA3A
:1005E00043228A6001688A6822F480628A60016816
:1005F0008A68406942EA8020886010BD002301407B
:1006000000E0FFFF0000F0FFFEE710B5806B816B9C
:10061000496D022902D0012180F8251000F03AFA34
:1006200010BD0000014800F037BA0000C8000020EB
:10063000014800F0B5BB0000080100200168182344
:10064000CAB2103AB2FBF3F2054B6FF30901032A69
:100650009B5CC36500D9091D816508467047000091
:10066000CA35000810B5014600208B698A6A4FF030
:10067000C07453B1B3F5005F15D072B1012A0CD02C
:10068000022A0AD0032A09D104E01AB1012A06D0AD
:10069000022A03D1C96AC90100D5012010BDC96A67
:1006A000A142FAD010BD002AF7D0012AF2D0022AC6
:1006B000F3D0032AF3D010BD704772B6FEE70000F6
:1006C00078B50024009490F83C20012A19D001222A
:1006D00080F83C200A6807230568092A13D9EE68C8
:1006E0000A3A02EB420293409E43EE600B788A681E
:1006F0000A3B03EB43039A400368DD682A43DA6050
:1007000010E0022078BD2E6902EB420293409E4326
:100710002E610B788A6803EB43039A4003681D69D6
:100720002A431A614A681F23072A13D205686E6B91
:10073000521E02EB820293409E436E630B790A883D
:100740005B1E92B203EB83039A4003685D6B2A43FE
:100750005A6327E005680D2A12D22E6BD21F02EBD6
:10076000820293409E432E630B790A88DB1F92B26C
:1007700003EB83039A4003681D6B2A431A6311E05D
:10078000EE6A0D3A02EB820293409E43EE620B79D1
:100790000A880D3B92B203EB83039A400368DD6A3B
:1007A0002A43DA62164B0568144A9D4206D10D6849
:1007B000122D03D1556845F48005556005689D42AA
:1007C00018D10B68102B01D0112B13D1536843F4AF
:1007D00000035360096810290CD10A490A4A0968C4
:1007E000B1FBF2F101EB8101490000E0491E0091EB
:1007F0000029FBD180F83C40002078BD0023014057
:10080000002001401400002040420F0070B5040099
:100810004FF0000503D0206C002610B107E0012046
:1008200070BD204600F01CF8666484F83C60206CC3
:10083000C00610D4206C20F4885040F002002064E0
:100840002046FFF74DFE6664206C20F0020040F069
:100850000100206400E0012584F83C60284670BD5A
:1008600010B586B0044614216846FFF7D4FD11493F
:10087000206888421CD110480021026842F480722E
:100880000260006800F4807005900B48143802681C
:1008900042F004020260006800F0040005901E208F
:1008A00000900320CDE901016946044800F0B2FB45
:1008B00006B010BD0020014044380240000802404C
:1008C00070B5040003D094F8200010B104E00120BA
:1008D00070BD204600F082F82068016841F00101F7
:1008E000016000F095FC0546052604E000F090FC50
:1008F000401B0A2811D820684068C007F6D020683D
:10090000016821F00201016000F082FC05460BE065
:1009100000F07EFC401B0A2806D9606A40F40030D3
:10092000606284F82060D2E7206840688007EFD4D6
:10093000207E0128206801683DD021F080010160FF
:10094000607E01282068016838D021F040010160F4
:10095000A07E01282068016833D021F020010160C9
:10096000E07E0128206801682ED041F0100101606E
:10097000207F01282068016829D021F0080101604A
:10098000607F01282068016824D021F00401016003
:10099000D4E902010843D4E9041211430843616811
:1009A000491E08432168C86100206062012084F864
:1009B0002000002070BD41F08001C0E741F04001FF
:1009C000C5E741F02001CAE721F01001CFE741F06F
:1009D0000801D4E741F00401D9E7000010B586B062
:1009E000044614216846FFF716FD14492068884222
:1009F00021D113480021026842F0007202600068B1
:100A000000F0007005900E481038026842F00102B4
:100A10000260006800F0010005904FF4C0500090A3
:100A20000220CDE9010103200390092004906946CA
:100A3000044800F0EFFA06B010BD0000006400406A
:100A4000403802400000024010B5040002D0607936
:100A500010B106E0012010BD00202071204600F0FA
:100A600005F801206071002010BD000008B5006885
:100A70000649884208D10648016841F48051016066
:100A8000006800F48050009008BD00000030024073
:100A900030380240704770472DE9F0410446006845
:100AA0000569224F69074FF004060BD54661E06BDC
:100AB00040F00200E06384F82560A06B0765A06B3E
:100AC00000F05CF9A8070DD5216802204861E06BB1
:100AD00040F00100E06384F82560A06B0765A06B1F
:100AE00000F04CF9E80605D5216810204861204641
:100AF00000F05EF8280705D52168082048612046E7
:100B000000F0F2F8E8070FD020680168890703D5E4
:100B1000C16821F01E01C1602068C16821F0010197
:100B2000C1602046FFF7B7FFBDE8F0810B06000863
:100B300070B5040004D094F82500002510B109E038
:100B4000012070BD84F82450204600F033F8204680
:100B500000F030F8022084F825002068016840F693
:100B6000F87291430160616960680843D4E9031237
:100B700011430843A1680843A1690843216A084357
:100B800021680A68104308606068102805D1E17F79
:100B9000E06961F31F60216888612068C16841F0E5
:100BA0001E01C160E563012084F82500002070BDAE
:100BB00070470000F0B587B0064614216846FFF77D
:100BC0002AFC4149306888427BD1404800250168B1
:100BD00041F00101016000683C4900F00100091F7B
:100BE0000590086840F010000860086800F01000E8
:100BF0000590086840F001000860086800F00100F6
:100C00000590086840F004000860086800F00400DF
:100C10000590086840F0020008600868022400F0AF
:100C20000200059013208DE831000D27CDE9035710
:100C30006946274800F0EEF950208DE83100CDE9F3
:100C400003576946234800F0E5F9C0208DE83100DC
:100C5000CDE903576946204800F0DCF94FF4707085
:100C60008DE83100CDE9035769461C4800F0D2F900
:100C70001C4C1B4820604FF00070C4E90105C013F4
:100C8000C4E90350800060618000A0618011E061D0
:100C90004FF440302062042060620320C4E90A055A
:100CA0002046256300F04CF908B1FFF706FDB46358
:100CB000002211464E20A66300F03EFB4E2000F0BD
:100CC0002DFB07B0F0BD0000000005503438024095
:100CD00000100240000002400008024000040240F0
:100CE000286402400801002070472DE9F0410446C5
:100CF000876D00F08DFA064694F83500002502282D
:100D000006D08020606584F834500120BDE8F08171
:100D10002068016821F0160101602068416921F016
:100D200080014161206C08B9A06C20B12068016885
:100D300021F0080101602068016821F001010160D3
:100D40000CE000F065FA801B052807D920206065BB
:100D5000032084F8350084F83450D7E72068006811
:100D6000C007EED194F85C103F208840B8600120A5
:100D700084F8350084F834500020C7E790F8351027
:100D8000022903D08021416501207047052180F8A8
:100D900035100068016821F00101016000207047F2
:100DA0002DE9F84304464FF00009CDF80090634860
:100DB0004FF41651A56D0068B0FBF1F72E6894F85A
:100DC0005C10082000FA01F131420FD021680A6856
:100DD00052070BD50A6822F004020A6094F85C10EE
:100DE0008840A860606D40F00100606594F85C1078
:100DF0004FF0010808FA01F0304208D02168496933
:100E0000090604D5A860606D40F00200606594F8A2
:100E10005C1004208840304208D0216809688907A6
:100E200004D5A860606D40F00400606594F85C1023
:100E300010208840304218D021680968090714D56D
:100E4000A86020680168490304D50068000308D53C
:100E5000A16C07E00168C90503D4016821F008010D
:100E60000160216C09B12046884794F85C1020206D
:100E70008840304231D021680968C9062DD5A86064
:100E800094F8350005282068016806D0490347D545
:100E9000006800031DD4616C1CE021F016010160A4
:100EA0002068416921F080014161206C08B9A06C83
:100EB00020B12068016821F00801016094F85C10FD
:100EC0003F208840A86084F8358084F83490216DF4
:100ED0001FE0E16B09B120468847606D00282BD0E8
:100EE000606DC00714D0052084F8350020680168C3
:100EF00021F0010101600098401C0090B84203D825
:100F000020680068C007F6D184F8358084F83490F2
:100F1000E16C002910D001B02046BDE8F04308473D
:100F20000168C905D5D4016821F01001016084F879
:100F3000358084F83490CCE7BDE8F88314000020B5
:100F40002DE9F041044600F063F906465CB1022049
:100F500084F83500002584F834502068016821F0B9
:100F6000010101600DE00120BDE8F08100F050F9C1
:100F7000801B052805D920206065032084F83500F2
:100F8000F2E720680068C007F0D1226811682048A5
:100F90000140D4E901031843D4E90336334318432D
:100FA00063691843A3691843E3691843236A184324
:100FB0000843616A042903D1D4E90B131943084398
:100FC000106020684069666A20F0070130460E43D1
:100FD000012704280CD1A06A0643E06A40B12046EC
:100FE000FFF740FB20B14020606584F83570BAE718
:100FF000206846612046FFF721FB94F85C203F21E2
:1010000091408160656584F835700020ACE7000090
:101010003F8010F02DE9F84FDFF8BCA10022012538
:1010200003264FF00F090AF1040BAAF1040E00BFCA
:101030000B6805FA02F42340A34270D10F7907F040
:101040000307012F01D0022F16D187684FEA42080B
:1010500006FA08FC27EA0C07D1F80CC00CFA08FCC9
:101060004CEA070CC0F808C04768A7430C79C4F3E2
:10107000001494403C4344600C79E443A4070AD034
:10108000C4684FEA420C06FA0CF7BC438F6807FAB3
:101090000CF72743C7600C7904F00304022C12D12B
:1010A000D40800EB840CDCF820405707FF0E09FA47
:1010B00007F824EA0804D1F8108008FA07F848EA8B
:1010C0000408CCF8208004684FEA420C06FA0CF7BA
:1010D000BC430F7907F0030707FA0CF727430760B3
:1010E0004C6814F4403F70D03C4C276847F480476C
:1010F0002760246822F0030704F480440094384CED
:1011000007EB040CDCF8084897074FEA177809FA50
:1011100008F7BC43334FB84202D1002724E054E023
:10112000314FB84201D101271EE0304FB84201D102
:10113000022719E02E4FB84201D1032714E02D4FAA
:10114000B84201D104270FE02B4FB84201D1052747
:101150000AE02A4FB84201D1062705E0284FB842DD
:1011600001D1072700E0082707FA08F72743CCF842
:101170000878DAF800405746D1F804C09C435FEA8B
:10118000CC2C00D51C433C60DBF800405F46D1F816
:1011900004C09C435FEA8C2C00D51C433C60DEF805
:1011A00000407746D1F804C09C435FEA8C3C00D5F0
:1011B0001C433C60084F083F3C68D1F804C09C4386
:1011C0005FEACC3C00D51C433C60521C102AFFF463
:1011D0002FAFBDE8F88F0000083C014044380240C2
:1011E00000300140000002400004024000080240BC
:1011F000000C02400010024000140240001802409F
:10120000001C02400AB1816170470904FBE700003D
:1012100001488068704700000800002070B5040095
:1012200011D021684CF6CC400860216845F2555039
:101230000860D4E9000141602168A0688860FFF778
:10124000E7FF05460DE0012070BD00BFFFF7E0FF9E
:10125000401B312805D92068C068800701D00320D1
:1012600070BD2068C0688007F0D121684AF6AA20C6
:101270000860002070BD00000B4810B5016841F403
:1012800000710160016841F480610160016841F40E
:1012900080710160032000F06FF80F2000F006F865
:1012A00000F024F8002010BD003C024070B50D4D48
:1012B00004464FF47A712878B1FBF0F00A490968C6
:1012C000B1FBF0F000F00CFB48B9102C07D2002263
:1012D0002146501E00F030F800206C6070BD0120E7
:1012E00070BD000008000020140000200A4808B566
:1012F000016841F480410160006800F48040009082
:101300000548001F016841F080510160006800F04D
:101310008050009008BD000044380240002809DBDE
:1013200000F01F02012191404009800000F1E020FF
:10133000C0F8001170470000F0B40E4B1B680C465B
:10134000C3F30223C3F10705042D00D90425191D99
:10135000072901D2002300E0DB1E012606FA05F171
:10136000491E214099409E40761E16403143F0BCF4
:1013700002F00DB80CED00E0064900F00702086825
:101380004FF6FF03184040EA0220034A104308606A
:10139000704700000CED00E00000FA052DE9F04771
:1013A0000E46050065D0DFF81481D8F80000F7B2CA
:1013B00000F00700B04207D288F80070D8F80000AB
:1013C00000F00700B04254D128683D4C810712D587
:1013D000400703D5206840F4E050206028780007DB
:1013E00003D5206840F4604020602068A96820F0A0
:1013F000F000084320602878C0072DD03049686885
:101400000839012812D0022813D0032811D0096806
:10141000890700292DDA216821F0030101432160A9
:10142000FFF7F6FE814641F2883A0EE0096889032B
:10143000EFE709688901ECE7FFF7EAFEA0EB090195
:10144000514502D90320BDE8F0872068696800F0A3
:101450000C00B0EB810FEFD1D8F80010404601F03E
:101460000701B14207D90770006800F00700B042D9
:1014700001D00120E7E72878400705D52068E96812
:1014800020F4E050084320602878000706D5206843
:10149000296920F4604040EAC100206000F038F87B
:1014A0002168084AC1F30311515CC840064908602D
:1014B00006480068FFF7FAFE0020C4E7003C02403F
:1014C00008380240D2350008140000200C0000202B
:1014D0000448054900680968044AC1F38221515C47
:1014E000C84070471400002008380240E235000868
:1014F0000448054900680968044AC1F34231515C57
:10150000C84070471400002008380240E235000847
:10151000154810B5006810F00C02144813D0144997
:10152000042A0FD0082A0ED10F4C241F22682368EA
:1015300002F03F025B0207D52068C0F38810A0FBD1
:10154000010106E0084610BD2168C1F38811A1FB26
:1015500000010023FEF7E8FE2168C1F30141491CA8
:101560004900B0FBF1F010BD083802400024F4003F
:1015700040787D012DE9F84F04006ED02078DFF827
:101580004C93C007A9F104054AD009F10400016891
:10159000C1F38101012908D00068C0F3810002284D
:1015A0000AD1D9F80000400206D52868800337D553
:1015B00060680028E1D033E06068B0F5803F10D06B
:1015C000B0F5A02F286810D020F48030286028685B
:1015D00020F4802028606068A8B1FFF719FE064655
:1015E0000DE0286840F48030F4E740F48020286063
:1015F000F7E700BFFFF70CFE801B642873D828684C
:101600008003F7D50CE0FFF703FE064605E000BFB8
:10161000FFF7FEFD801B6428F0D828688003F7D40C
:101620002078DFF8AC8280074FF0000A3ED5A7484B
:10163000001D016811F00C0F08D00068C0F3810094
:1016400002280BD1D9F80000400207D4286880078F
:1016500016D5E068012800D112E033E1E068B8B1A6
:101660000120C8F80000FFF7D3FD064605E000BFE3
:10167000FFF7CEFD801B0228C0D828688007F7D569
:101680002868216920F0F80040EAC10028600DE0D8
:10169000C8F800A0FFF7BCFD064604E0FFF7B8FD60
:1016A000801B02281FD828688007F7D420780007FD
:1016B00022D5864F87486169703771B10121016079
:1016C000FFF7A6FD064604E0FFF7A2FD801B0228F7
:1016D00009D838688007F7D50EE0C0F800A0FFF7FA
:1016E00097FD064605E082E0FFF792FD801B022889
:1016F0007DD838688007F7D42078400768D5DFF8B0
:10170000CCB100270BF13C0BDBF80000C0000BD480
:10171000DBF8001041F08051CBF80010DBF800003E
:10172000012700F0805000906B4E3068C00510D447
:10173000306840F480703060FFF76AFD009005E08B
:10174000FFF766FD0099401A022850D83068C0059E
:10175000F6D55E4EA0686C3601280FD0052830689B
:1017600010D020F001003060306820F004003060BC
:10177000A068B8B1FFF74CFD00900FE0306840F072
:101780000100F4E740F004003060F7E7FFF740FDA8
:101790000099411A41F28830814266D8306880074A
:1017A000F4D50EE0FFF734FD009007E0FFF730FDC1
:1017B0000099411A41F28830814256D8306880073A
:1017C000F4D42FB1DBF8001021F08051CBF80010D9
:1017D000A069C8B33D49091D0968C1F38101022907
:1017E0004AD00228504607D0C8F8600000E03CE02C
:1017F000FFF70EFD04463BE04746C8F86000FFF7E0
:1018000007FD064605E000BFFFF702FD801B02282A
:101810002BD828688001F7D4D4E907010843A16ACE
:101820002E4A490802EB0141626A41EA82110843EB
:1018300094F82C1040EA0161C9F8001001203866C4
:10184000FFF7E6FC044606E03EE000BFFFF7E0FCE1
:10185000001B022809D828688001F7D534E000BFB2
:10186000FFF7D6FC001B022802D90320BDE8F88F41
:1018700028688001F4D427E00128F7D0D9F80000C7
:10188000E26900F4800191421CD1226A00F03F011C
:10189000914217D147F6C071626A0140B1EB821FD5
:1018A00010D1A26A4FF0FF3300F4403103EB520233
:1018B000B1EB024F06D194F82C1000F07060B0EB41
:1018C000016F01D00120D1E70020CFE704380240AA
:1018D00000004742800E4742007000400000FFFFBA
:1018E00010B5401EB0F1807F01D3012010BD4FF034
:1018F000E02460610F21601701F049FD0020A06124
:1019000007202061002010BD7047704710B590F887
:101910003C20012A22D0012280F83C20CA688C6831
:1019200022F4407222434C6822F4806222430C6805
:1019300022F4006222430C6922F4805222434C6953
:1019400022F400522243C969002322F480420A4350
:1019500001684A6480F83C30002010BD022010BDB0
:1019600070B590F83C20012A32D0012480F83C4028
:10197000022280F83D2003685A689D6822F07006B4
:101980000A6832435A60134B02689A4214D0B2F18B
:10199000804F11D0104B9A420ED0104B9A420BD070
:1019A0000F4B9A4208D00F4B9A4205D00E4B9A42E9
:1019B00002D00E4B9A4204D1496825F080031943A6
:1019C000916080F83D40002180F83C10084670BDD1
:1019D000022070BD000001400004004000080040EB
:1019E000000C00400004014000400140001800408D
:1019F00010B5040003D094F83D0010B107E00120B9
:101A000010BD002084F83C00204600F01FF80220A2
:101A100084F83D00211D206801F042FA012084F87D
:101A2000460084F83E0084F83F0084F8400084F8C3
:101A3000410084F8420084F8430084F8440084F8AC
:101A4000450084F83D00002010BD000008B528497D
:101A5000026828488A4211D1016841F010010160F2
:101A60000068002200F01000009011463620FFF7B9
:101A700063FCBDE808403620FFF750BC1D491E4BF3
:101A8000091D9A4207D1086840F002000860086802
:101A900000F0020009E0194B9A4208D1086840F4AE
:101AA00000300860086800F40030009008BD144B56
:101AB0009A4207D1086840F480200860086800F462
:101AC0008020F2E70F498A4207D1016841F0800186
:101AD0000160006800F08000E7E70B498A42E5D129
:101AE000016841F480710160006800F48070DCE7F7
:101AF0000010004040380240000401400044014012
:101B000000480140001C00400020004070B5044621
:101B100090F83C000025012817D0012684F83C608D
:101B2000022084F83D002068826822F0770222F4C7
:101B30007F4282600868502838D00DDC20284FD0C2
:101B400005DC90B3102811D14AE0022070BD302886
:101B500046D040280AD13BE060282FD070280DD015
:101B6000B0F5805F03D0B0F5005F12D0012584F896
:101B70003D60002084F83C00284670BDCB68D1E968
:101B80000121206801F0F0F92068816841F07701B7
:101B900009E0CB68D1E90121206801F0E5F920686E
:101BA000816841F480418160E1E719E0CA684968D1
:101BB000206801F0ADFA5021206806E0CA68496843
:101BC000206801F0B6FA6021206801F0D7F9CEE76D
:101BD000CA684968206801F09BFA40212068F4E750
:101BE000226801461046F0E72DE9F0410D46040059
:101BF00003D094F83D0018B108E00120BDE8F08161
:101C0000002084F83C00204600F040F8022084F8D0
:101C10003D002068816844F2070291438160211DE4
:101C2000206801F03DF9226890689169166A2B6876
:101C3000AF69034340F20330814341EA0721A868BA
:101C4000EF6908434FF6FC418843E96840EA072002
:101C5000014328692F6A000140EA07300843696898
:101C60006D6926F0AA0646EA0515294393602268A5
:101C7000906154F8460B0162012004F81F09E075D9
:101C80002076E0762077A0750020B7E7F0B587B022
:101C9000044614216846FEF7BEFB59492368002418
:101CA0005848022501268B4219D1564914310A6839
:101CB00042F001020A60096801F001010591016822
:101CC00041F0100101600068694600F010000590C5
:101CD0004FF420600090CDE901544B4863E049493E
:101CE0004A4A10314A4FB3F1804F35D0494EB34282
:101CF0005FD10B6843F002030B60096801F0020139
:101D00000591016841F001010160016801F00101E4
:101D10000591016841F0020101600068694600F028
:101D20000200059080200090CDE901541046CDE9D5
:101D30000345FFF76FF910200090CDE90154694683
:101D40003846CDE90345FFF765F9002211461D200D
:101D5000FFF7F2FA1D2050E00B6843F001030B601F
:101D6000096801F001010591016841F0010101607C
:101D7000016801F001010591016841F00201016073
:101D800000680096CDE9015400F00200CDE904603E
:101D9000694603941046FFF73DF908200090CDE90D
:101DA000015469463846CDE90346FFF733F907B0D9
:101DB000F0BD194A9342FAD10A6842F004020A605F
:101DC000096801F004010591016841F00801016012
:101DD0000068694600F0080005904FF440500090FC
:101DE000CDE901540D48CDE90345FFF713F9002271
:101DF00011461E20FFF7A0FA1E20FFF78FFAD6E744
:101E00000000014030380240001002400000024053
:101E1000000402400004004000080040000C0240A2
:101E2000704770B50446006801694FF00005C9436A
:101E3000890715D4C168C943890711D4E91E016116
:101E400001202077206880698007204602D0FFF7B4
:101E5000E7FF04E000F01EF9204600F0CDF92577F9
:101E600020680169C943490717D4C168C9434907B4
:101E700013D46FF00401016102202077206880698B
:101E800010F4407F204602D0FFF7CAFF04E000F0C4
:101E900001F9204600F0B0F9257720680169C943AF
:101EA000090716D4C168C943090712D46FF00801A5
:101EB0000161042020772068C0698007204602D095
:101EC000FFF7AEFF04E000F0E5F8204600F094F9DB
:101ED000257720680169C943C90617D4C168C94379
:101EE000C90613D46FF01001016108202077206823
:101EF000C06910F4407F204602D0FFF791FF04E054
:101F000000F0C8F8204600F077F9257720680169CD
:101F1000C943C90708D1C168C943C90704D1891E8B
:101F20000161204600F069F920680169C94309068A
:101F300009D4C168C943090605D46FF08001016165
:101F40002046FFF7E1FC20680169C943490609D42E
:101F5000C168C943490605D46FF0400101612046BC
:101F600000F04CF920680169C94389060BD4C168A7
:101F7000C943890607D46FF0200101612046BDE8FE
:101F80007040FFF7C2BC70BD70B586B00446142126
:101F90006846FEF740FA2468344800223449022398
:101FA000844210D1086840F0010008600868694662
:101FB00000F0010005900E200090CDE901322D487F
:101FC000CDE9032312E02C480325844212D108688E
:101FD00040F0040008600868694600F004000590BD
:101FE00028020090CDE9013224483CE0FFF712F8C6
:101FF00006B070BD224E2348B44209D10C6844F0AB
:1020000020040C60096801F020010591402126E0C0
:102010001D4EB44209D10C6844F020040C600968DC
:1020200001F020010591802119E0184E0925B442E4
:1020300009D10C6844F020040C60096801F020010B
:102040000591B1150BE0124EB442D1D10C6844F0A9
:1020500020040C60096801F02001059171150091C0
:10206000CDE901326946CDE90325BFE7000C004008
:1020700030380240000002400004014000080240E5
:10208000004401400014024000480140001C004090
:1020900000200040704770B5044690F83C000026D0
:1020A0000D4601280FD0012084F83C006AB1042AB3
:1020B0001DD0082A2FD00C2A3FD00126002084F8FA
:1020C0003C00304670BD022070BD206800F05EFF0D
:1020D0002068816941F0080181612068816921F0EF
:1020E00004018161206881692A69114311E0206837
:1020F00000F07CFF2068816941F400618161206803
:10210000816921F480618161206881692A6941EADD
:1021100002218161D2E7206800F09EFF2068C1693A
:1021200041F00801C1612068C16921F00401C16169
:102130002068C1692A69114311E0206800F0C0FFDE
:102140002068C16941F40061C1612068C16921F45E
:102150008061C1612068C1692A6941EA0221C161C7
:10216000ACE710B5040003D094F83D0010B107E0CF
:10217000012010BD002084F83C00204600F01EF82D
:10218000022084F83D00211D206800F089FE012016
:1021900084F8460084F83E0084F83F0084F840004C
:1021A00084F8410084F8420084F8430084F8440035
:1021B00084F8450084F83D00002010BD08B5006893
:1021C0000B49884212D10B48016841F008010160B7
:1021D0000068002200F00800009011463220FFF74E
:1021E000ABF8BDE808403220FFF798B808BD000002
:1021F000000C0040403802407047704770477047FD
:1022000070470000F8B5016804460868CA684B6961
:1022100010F00F0F4FF0000559D003F0010602F443
:102220009077374365D0C10705D0D10503D5216C20
:1022300041F001012164410705D5D90703D0216C84
:1022400041F002012164810705D5D90703D0216C33
:1022500041F004012164010707D502F02001314358
:1022600003D0216C41F008012164216C00293AD08F
:10227000800604D5900602D5204600F09BFF20681A
:102280004069216CC0F38010090700D460B3204678
:1022900000F069FF20684069400621D520681430AD
:1022A00050E8001F21F0400140E80012002AF5D15B
:1022B000A06BA8B16C490165A06BFEF75FFD00281B
:1022C00011D0A06B016D01B0BDE8F0400847830656
:1022D0000FD593060DD52046BDE8F84000F06ABF43
:1022E0002046FFF78DFFF8BD2046FFF789FF2564E4
:1022F000F8BD266B2023012E79D1C60677D5D606E8
:1023000075D50868486800904869400640D5A16BBB
:10231000086840680004000CEAD0A28D8242E7D928
:10232000E085C869B0F5807F2DD020680C3050E87A
:10233000001F21F4807140E80012002AF5D12068C6
:10234000143050E8001F21F0010140E80012002A7B
:10235000F5D12068143050E8001F21F0400140E81A
:102360000012002AF5D184F83E30256320680C3035
:1023700050E8001F21F0100140E80012002AF5D1BA
:10238000A06BFEF7B2FCA08DE18D401A81B229E06E
:10239000A08DE18D401A81B2E08D0028A8D00029DF
:1023A000A6D020680C3050E8002F22F4907240E84C
:1023B0000026002EF5D12068143050E8002F22F0BE
:1023C000010240E80026002EF5D184F83E30256356
:1023D00020680C3050E8002F22F0100240E8002363
:1023E000002BF5D12046FFF70AFFF8BDFFE70506F1
:1023F0002BD5150629D594F83D002128F5D1A068E4
:10240000B0F5805F01D12069B0B1206A411C216222
:10241000216800784860E08C401E0004000CE084D5
:10242000E3D12068C16821F08001C1602068C168E3
:1024300041F04001C160D8E7206A0088C0F308007D
:102440004860206A801C2062E5E74006CDD5500632
:10245000CBD5CA68204622F04002CA6084F83D30DD
:1024600000F099F8C1E700005731000870B504008A
:1024700004D094F83D00002510B106E0012070BDA5
:1024800084F83C50204600F023F8242084F83D00D6
:102490002068C16821F40051C160204600F0EAFEC6
:1024A0002068016921F4904101612068416921F0AF
:1024B0002A0141612068C16841F40051C16025646E
:1024C000202084F83D0084F83E00002070BD00000C
:1024D00070B586B0044614216846FDF79CFF284E6F
:1024E000226800212748022303240725B24225D170
:1024F000244A1432166846F010061660126802F07C
:1025000010020592026842F001020260006802AA0D
:1025100000F00100059082E832006002CDE900037E
:1025200069461948FEF776FD002211462520FEF780
:1025300003FF2520FEF7F2FE06B070BD134EB24237
:10254000FAD1104A1032166846F4802616601268D6
:1025500002F480220592026842F0020202600068E2
:1025600002AA00F00200059082E832004FF44060B9
:10257000CDE9000369460648FEF74CFDDCE70000A4
:102580000010014030380240000002400048004086
:102590000004024070477047FEE700007FB500244A
:1025A00015480094019402941249039401604FF479
:1025B0008031C0E901140461047680F820400F499D
:1025C000C0E90A140125C561C46080F83040456146
:1025D000FEF71CF908B1FEF770F80B20CDE90005F5
:1025E000694602940448FEF76BF8002801D0FEF714
:1025F00064F87FBD00200140580000200100000F5A
:102600000F4810B50D4901600421416000214FF4CD
:1026100030228160C0E903124FF4E002426101768A
:1026200041768176C17601774177FEF749F9002836
:1026300003D0BDE81040FEF740B810BD0064004074
:10264000A0000020074910B5054808600846FEF7BD
:10265000FBF9002803D0BDE81040FEF72EB810BDEE
:1026600000300240000000200B4810B5094901600D
:1026700000212022C0E90112C16001614161816134
:102680000162FEF755FA002803D0BDE81040FEF7BE
:1026900014B810BD00000550C8000020094808B556
:1026A000016841F4800101600068002200F48000AC
:1026B000009011463920FEF73FFEBDE80840392062
:1026C000FEF72CBE303802402DE9F04F87B01421C0
:1026D0006846FDF7A0FE4B480024016841F0100158
:1026E0000160016801F010010591016841F02001CD
:1026F0000160016801F020010591016841F080014D
:102700000160016801F080010591016841F0040158
:102710000160016801F004010591016841F00101C7
:102720000160016801F001010591016841F00201B9
:102730000160016801F002010591016841F00801A2
:102740000160016801F008010591016841F0400154
:1027500001600068DFF8B0A000F0400041F63F05DE
:102760000590002229465046FEF74CFDDFF89CB04C
:102770004FF44266002231465846FEF743FD4FF4BF
:102780004057002239462248FEF73CFD4FF470685E
:10279000002241461F48FEF735FD4FF40249002252
:1027A00049461D48FEF72EFD00950125CDE901544F
:1027B000694650460394FEF72DFC0096CDE901547E
:1027C000694658460394FEF725FC0097CDE901546D
:1027D00069460F480394FEF71DFCCDF80080CDE953
:1027E000015469460B480394FEF714FCCDF80090A1
:1027F000CDE90154694608480394FEF70BFC07B085
:10280000BDE8F08F3038024000140240000802405A
:1028100000040240000C024000180240094810B5B4
:10282000074901600021416040F6FF718160FEF7B9
:10283000F5FC002803D0BDE81040FDF73EBF10BDF9
:10284000003000406801002010B588B01C216846A7
:10285000FDF7E1FD144813490024C0E900144FF6C8
:10286000FF71C0E9024104618461FFF7C1F808B15A
:10287000FDF723FF0C48FFF774FC08B1FDF71DFFBF
:102880006020CDE9000402940022694606480494C1
:10289000FFF701FC08B1FDF710FF0348FFF774FBD9
:1028A00008B010BD004401406C03002010B588B092
:1028B0001C216846FDF7AFFD144813490024C0E908
:1028C00000144FF6FF71C0E9024104618461FFF713
:1028D0008FF808B1FDF7F1FE0C48FFF742FC08B194
:1028E000FDF7EBFE6020CDE900040294002269466A
:1028F00006480494FFF7CFFB08B1FDF7DEFE03485E
:10290000FFF742FB08B010BD00480140B4030020AF
:1029100010B588B01C216846FDF77DFD14481349A9
:102920000024C0E900144FF6FF71C0E902410461C0
:102930008461FFF75DF808B1FDF7BFFE0C48FFF7B3
:1029400010FC08B1FDF7B9FE6020CDE90004029447
:102950000022694606480494FFF79DFB08B1FDF785
:10296000ACFE0348FFF710FB08B010BD001C004090
:10297000FC03002010B588B01C216846FDF74BFD14
:10298000144813490024C0E900144FF6FF71C0E950
:10299000024104618461FFF72BF808B1FDF78DFE59
:1029A0000C48FFF7DEFB08B1FDF787FE6020CDE99C
:1029B000000402940022694606480494FFF76BFB6A
:1029C00008B1FDF77AFE0348FFF7DEFA08B010BD44
:1029D000002000404404002010B58CB0242168463B
:1029E000FDF719FD00241648099414490A94C0E91A
:1029F00000144FF6FF71C0E9024104614461846133
:102A00000120CDE90004CDE902040494CDE905409C
:102A1000079469460A480894FFF7E6F808B1FDF7FD
:102A20004CFE099409A906480A94FEF799FF00286C
:102A300001D0FDF742FE0CB010BD000000000140C7
:102A40007401002010B58CB024216846FDF7E3FC2A
:102A50000024144809944FF080410A94C0E90014FE
:102A6000611EC0E90241046184610120CDE90004D6
:102A7000CDE902040494CDE905400794694609486C
:102A80000894FFF7B1F808B1FDF717FE099409A9FA
:102A900004480A94FEF764FF002801D0FDF70DFEFC
:102AA0000CB010BDBC01002010B58CB024216846CC
:102AB000FDF7B1FC00241548099413490A94C0E9B4
:102AC000001440F2F311C0E9024104618461012065
:102AD000CDE90004CDE902040494CDE90540079452
:102AE00069460A480894FFF77FF808B1FDF7E5FD4D
:102AF000099409A905480A94FEF732FF002801D07D
:102B0000FDF7DBFD0CB010BD000400400402002006
:102B100010B58CB024216846FDF77DFC00241548D3
:102B2000099413490A94C0E900144FF6FF71C0E9F3
:102B30000241046184610120CDE90004CDE9020471
:102B40000494CDE90540079469460A480894FFF7C4
:102B50004BF808B1FDF7B1FD099409A905480A949D
:102B6000FEF7FEFE002801D0FDF7A7FD0CB010BD5A
:102B7000000800404C02002010B58AB000240794E1
:102B80001C2168460894FDF746FC1E481C49C0E914
:102B900000144FF6FF71C0E9024104618461FFF740
:102BA000E0FA08B1FDF789FD079407A915480894D4
:102BB000FEF7D6FE08B1FDF780FD6020CDE90004E8
:102BC0000294042269460F480494FFF764FA08B19E
:102BD000FDF773FD082269460A48FFF75CFA08B161
:102BE000FDF76BFD0C2269460648FFF754FA08B161
:102BF000FDF763FD0348FFF7C7F90AB010BD0000F9
:102C0000000C0040940200201CB500240F480094E2
:102C10000D490194016044F29F11C0E9011442F290
:102C20000F718461C160FEF7E3FE08B1FDF745FD59
:102C30000094694605480194FEF792FE002801D0F1
:102C4000FDF73BFD1CBD000000100040DC02002031
:102C500010B596B000240F9410941194129413940C
:102C60001C2168461494FDF7D6FB202107A8FDF728
:102C7000D2FB2C482A49C0E900144FF6FF71C0E985
:102C80000241046144618461FEF7B2FE08B1FDF7C0
:102C900014FD4FF480500F900FA92248FEF736FF25
:102CA00008B1FDF70AFD1F48FFF75BFA08B1FDF711
:102CB00004FD139413A91B481494FEF751FE08B1A8
:102CC000FDF7FBFC6020CDE900040294039404941A
:102CD00005940822694613480694FFF7DCF908B109
:102CE000FDF7EBFC0C2269460E48FFF7D4F908B15A
:102CF000FDF7E3FC0794089409944FF400500A94FC
:102D0000CDE90B4007A907480E94FEF7FFFD08B177
:102D1000FDF7D3FC0348FFF737F916B010BD0000EC
:102D200000040140240300200C4810B50A4901604A
:102D30004FF4E1314160002181600C22C160C0E9A3
:102D400004128161C161FFF791FB002803D0BDE847
:102D50001040FDF7B2BC10BD001001408C040020F3
:102D60000C4810B50A4901604FF4E131416000217F
:102D700081600C22C160C0E904128161C161FFF76A
:102D800075FB002803D0BDE81040FDF796BC10BDD0
:102D900000480040D0040020FEE7FEE710B55020B8
:102DA00080F31188BFF34F8FBFF36F8F00F06AFB82
:102DB00018B104494FF080500860002080F311885A
:102DC00010BD000004ED00E030B593B0302168463E
:102DD000FDF721FB14210CA8FDF71DFB1E48002464
:102DE000016841F080510160006800F0805011904E
:102DF0001A48016841F4804101600068102100F424
:102E0000804011900A2000900120CDE903010225A5
:102E1000CDE905050820CDE90740A820CDE9090541
:102E200004200B906846FEF7A5FB08B172B6FEE7DA
:102E30000F20CDE90C054FF4A050CDE90E404FF422
:102E40008050109005210CA8FEF7A8FA002801D0A8
:102E500072B6FEE713B030BD40380240007000404B
:102E60000248016841F470010160704788ED00E09C
:102E70000148FEF7D6BF0000040200200148FEF71B
:102E8000D0BF00004C0200200148FEF7CABF00007E
:102E9000940200200148FEF7C4BF0000DC020020BD
:102EA000F0B50268254C264D264E274F274B4FF094
:102EB000804CA04209D0604507D0A84205D0B0425E
:102EC00003D0B84201D0984204D122F0700E4A6873
:102ED00042EA0E02A0421BD0604519D0A84217D08A
:102EE000B04215D0B84213D0984211D0184DA84224
:102EF0000ED0184DA8420BD0174DA84208D0174D40
:102F0000A84205D0164DA84202D0164DA84203D1C2
:102F100022F44075CA682A434D6922F080022A4390
:102F200002608A68C2620A688262A04201D0984246
:102F300001D10969016301214161F0BD0000014037
:102F40000004004000080040000C00400004014064
:102F5000004001400044014000480140001800408A
:102F6000001C00400020004010B5846842EA0322A3
:102F700024F47F440A432243826010BD826822F019
:102F800070020A4342F0070181607047F0B5026A9F
:102F900022F001020262036A42688469124E24F040
:102FA00073050C682C4323F002058B682B430D4DF1
:102FB000A84201D0B04205D123F00807CB683B43BB
:102FC00023F00403A84201D0B04205D14D6922F498
:102FD000407215438A692A434260846149684163AB
:102FE0000362F0BD0000014000040140F0B5026A38
:102FF00022F010020262026A436884690D6824F4B8
:10300000E64444EA05248D6822F0200242EA0512D3
:103010000F4D104EA84201D0B04206D1CF6822F029
:10302000800242EA071222F04002A84201D0B042D8
:1030300007D14D6923F4406343EA85038D6943EA70
:10304000850343608461496881630262F0BD0000CA
:103050000000014000040140F0B5026A22F48072D1
:103060000262026A4368C46922F4007224F07305A4
:103070000C68124E2C438D6842EA05220E4DA84280
:1030800001D0B04206D1CF6822F4006242EA0722A2
:1030900022F48062A84201D0B04207D14D6923F4E6
:1030A000405343EA05138D6943EA05134360C46145
:1030B0004968C1630262F0BD0000014000040140A4
:1030C00030B5026A22F480520262046A4268C3691F
:1030D0000D6823F4E64343EA05238D6824F4005485
:1030E00044EA0534084DA84202D0084DA84204D154
:1030F0004D6922F4804242EA85124260C361496808
:103100000164046230BD0000000001400004014081
:1031100010B5036A046A24F001040462846924F08F
:10312000F00444EA021423F00A020A4384610262B2
:1031300010BD10B5036A23F0100303628369046AAB
:1031400023F4704343EA023224F0A00343EA01115E
:103150008261016210BD10B5806B0021C185C18400
:10316000FFF74EF810BD01680C3151E8002F22F432
:10317000907241E80023002BF5D10168143151E829
:10318000002F22F0010241E80023002BF5D1016B52
:10319000012909D101680C3151E8002F22F01002F9
:1031A00041E80023002BF5D1202180F83E100021BA
:1031B0000163704708B590F83E10222901D0022023
:1031C00008BD82684FF480539A4201D1016921B150
:1031D000816A9A421BD04AB10AE00268816A526849
:1031E000C2F308020A80816A891C08E0026972B190
:1031F0000268526802F07F020A70816A491C81628B
:10320000C18D491E0904090CC18503D019E002686B
:103210005268F1E70168CA6822F02002CA600168BA
:10322000CA6822F48072CA6001684A6922F0010209
:103230004A61202180F83E10016B012903D0FFF77D
:10324000A9F9002008BD0021016301680C3151E893
:10325000002F22F0100241E80023002BF5D1016875
:103260000A68D20602D50A6849680091818DFEF786
:10327000C6FFE6E770B5044600680169E26821F41C
:103280004051114301612169A068E2690843616905
:10329000114308432168CA6849F20C639A43024308
:1032A000CA6020684169A26921F4407111434161FB
:1032B00031492068884202D03049884202D1FEF765
:1032C00017F901E0FEF704F9E269002319216425EA
:1032D0003226B2F5004F626828D0A0FB0101930F9F
:1032E0009200FDF721F80146B0FBF5F06FF01802EF
:1032F000504301EB800006EB0010B0FBF5F000F04E
:10330000F002B1FBF5F002EB0012B1FBF5F06FF04B
:103310001803584301EB800006EB0010B0FBF5F0FA
:1033200000F00F0021681044886070BDA0FB01010F
:1033300092185B41FCF7F8FF0146B0FBF5F0020183
:10334000B1FBF5F06FF01803584301EB800006EB7A
:10335000C000B0FBF5F000F0F80002EB4002B1FB5A
:10336000F5F0584301EB800006EBC000B0FBF5F030
:1033700000F00700D6E700000010014000140140F3
:103380000148FEF73FBF00008C040020FEE709075C
:10339000090E002804DB00F1E02080F800147047DB
:1033A00000F00F0000F1E02080F8141D7047FDF7D9
:1033B00063FFFFF709FDFFF787F9FFF76FF9FFF7E5
:1033C00041F9FFF73FFBFFF76FFBFFF7A1FBFFF7AB
:1033D000ABFCFFF7E3F8FFF713F9FFF71FFAFFF76E
:1033E000FBFAFFF7C9FBFFF7BBFCFFF72DFAFFF76E
:1033F0005DFAFFF78DFAFFF7BDFAFFF735F9FFF732
:1034000027FCFFF701FCFEE70548416B096821B185
:10341000416BC9680968816270474FF0FF31FAE774
:103420001800002015490A6B01F11C0012B101219E
:1034300001607047002202600869114AB0FA80F00A
:10344000C0F11F0000EB800052F8203073B102EB96
:10345000800000F108034268526842609A4201D13C
:10346000C2684260D068086008687047502080F3E6
:103470001188BFF34F8FBFF36F8FFEE71800002056
:10348000140500202DE9F0414B4C0026206B28B19B
:10349000A069401CA0613046BDE8F081E5686D1C64
:1034A000E56013D1606B006838B1502080F311885B
:1034B000BFF34F8FBFF36F8FFEE7606BA16B61634C
:1034C000A063206A401C2062FFF79EFFA16A3B4870
:1034D0008D420FD34FF0000E616B096839B1616BFB
:1034E000C968C9684A68954214D2A26202E04FF0E6
:1034F000FF31A1622168C96A01EB810150F8210006
:10350000012800D901262C481C3000680028C2D0B0
:103510000126C0E7D1E902724B69BA60D1E90227FE
:103520007A605F680A1D974201D1CF685F60C1F879
:1035300014E01F687F1E1F60D1F828C0BCF1000F87
:1035400015D0D1E907379F60D1E907377B60DCF8F8
:10355000047001F118039F4202D10B6ACCF80430C9
:10356000C1F828E0DCF800305B1ECCF80030CB6AF4
:103570000127D4F810C09F4047EA0C07276103EBEE
:10358000830300EB83035B688B609F68CF609F6859
:103590007A609A60CA6A02EB820200EB82034B6196
:1035A00050F822305B1C40F82230C96A2268D26A87
:1035B000914291D901268FE71800002014050020C0
:1035C0004FF04070E1EE100A70470006101600063A
:1035D00010160000000000000000010203040607AE
:1035E0000809000000000102030400000C36000876
:1035F0000000002058000000C401000864360008E4
:1036000058000020E80B0000E00100080000000066
:103610000000000001000000100000000000000099
:103620000024F40000000000000000000000000082
:10363000000000000000000000000000000000008A
:10364000000000000000000000000000000000007A
:103650000400000000000000000000000000000066
:043660000000000066
:040000050800018965
:00000001FF
